:10000000C0220020312E0000B99000001D2E0000FB
:100010001D2E00001D2E00001D2E000000000000FF
:10002000000000000000000000000000F12F0000B0
:100030001D2E0000000000008D2F00001D2E00006E
:1000400005320000053200000532000005320000D4
:1000500005320000053200000532000005320000C4
:1000600005320000053200000532000005320000B4
:1000700005320000053200000532000005320000A4
:100080000532000005320000053200000532000094
:100090000532000005320000053200000532000084
:1000A0000532000005320000053200000532000074
:1000B0000532000005320000053200000532000064
:1000C0000532000005320000053200000532000054
:1000D0000532000005320000053200000532000044
:1000E0000532000005320000053200000532000034
:1000F0000532000005320000053200000532000024
:10010000034613F8012B002AFBD1181A0138704757
:100110002DE9F04383B0037802AF0446052B44D8A1
:10012000DFE803F04743031D1772384A38480321BC
:1001300008F051FF05F06AFA364B984235D036493F
:10014000364A3748942308F08CFD9421334808F050
:1001500081FD344A2E48032108F03DFF25E0324A54
:100160002B48032108F037FF304A138801339BB234
:10017000032B138019D82E4C23885A1C22802D4A19
:10018000062000FB0320032105F0E6F9214B9842ED
:1001900007D02149214A2248A22308F062FDA2216A
:1001A000D4E7238803F0010323800437BD46BDE86C
:1001B000F083214A1648032108F00DFF6D4688B0F0
:1001C000636802AA1D49C2E90513032342F8103FE0
:1001D0000F48DFF86C80DFF8389000234FF4C651E9
:1001E00001F02EFE2689AD460025ABB2B342DCD22B
:1001F000636833F915300321009342462B46484685
:1002000008F0FCFE0135F0E70E4AA3E7409B000032
:10021000809800000000AD0B739B00005B9B00000A
:100220008A9B0000A79B0000BA9B0000A81000203A
:100230004C010020AA100020CF9B0000E19B000091
:10024000FD9B0000159C0000F0B5062185B0084616
:1002500000AF002202F00CFF00220621072002F06E
:1002600007FF08F049FE4A4A4A48032108F0B3FE56
:1002700001F080FC04460028FAD1072005F048F878
:10028000454B9842054609D04449454A4548D12343
:1002900008F0E7FCD121424808F0DCFC424805F0B8
:1002A00081F8A842064607D03C493D4A3D48D42340
:1002B00008F0D7FCD421EEE74FF0FA6301253B604C
:1002C000BD8005F0A5F82946384B3A4605F0BCF844
:1002D000B042054607D03149314A3248DF2308F0A1
:1002E000C0FCDF21D7E73248032105F035F9A842E9
:1002F000064607D029492A4A2A48E22308F0B1FCD9
:10030000E221C8E72B4BBB60072107F108003C73D3
:1003100004F0E4FCB042054607D02049204A2148B9
:10032000E62308F09EFCE621B5E707F1080004F09B
:1003300013FD214A214B6E4688B0002818BF134692
:100340006A461F49C2E905134FF4007393831D4B9E
:1003500042F8103F0F4823464FF4E65101F070FD7C
:10036000194AB5461F2107F1080000F06FF80F4841
:1003700005F01EFAA84207D00849094A0948EF23A8
:1003800008F06FFCEF2186E701F0F4FBFCE700BF0B
:100390003B9C0000809800000000AD0B739B0000A8
:1003A0005B9B00008A9B00009D9C000011010000E7
:1003B000AA100020006000402F9C00002B9C000031
:1003C0008B9C0000030000010C71004073B50D46CA
:1003D0000DF10301044604F0C9FC174B9842064690
:1003E00009D01649164A17482D2308F03AFC2D214A
:1003F000134808F02FFC9DF803308DF804300323D8
:100400008DF8053000238DF806300F4A01AB2946E0
:10041000204604F0E7FBB04207D00849084A0948E3
:100420003E2308F01EFC3E21E2E72946204604F068
:10043000A3FC02B070BD00BF0000AD0B739B0000B9
:10044000B49C00008A9B00001C9D0000F7B5054687
:100450000E461446FFF7BAFF0DF1070008F043FF00
:100460000F4B984209D00F490F48104A4D2308F00E
:10047000F8FB0E484D2108F0EDFB314628469DF86B
:10048000077008F0ABFF21460246384608F021FF0E
:100490009DF807300120984004F0E8F803B0F0BD63
:1004A0000000AD0B739B00008A9B0000B49C000011
:1004B0002DE9F04F91B08407009302F004030293FA
:1004C000C2F3C20303F10103DDF86880039205461D
:1004D0000E46059340F0F581041D30B1072909D877
:1004E0006FF01B0011B0BDE8F08F01F00706341D5E
:1004F000C6F10806009B4FF00009013B4FF0040BCA
:100500000193CDF810904F464B464FF0FF32DA463C
:100510000DB1009921600598002800F3D780984814
:100520000099814203D397488142C0F0CF8003995C
:10053000A4EB050E89074FEA9E0040F1E2804FF0E0
:10054000000CCCE07A285AD84B280CD8472856D82B
:1005500029282AD8252851D051D8202877D02338C7
:100560004342434173E04C382E2848D8DFE800F07E
:100570006F474747474747474747474749474747E1
:100580004747474747594749495959596F496C4760
:100590006F471849184747807D49474749477D00BD
:1005A000002000234FF0040B39E02A38C0B20121AB
:1005B00001FA00F010EA0E0F49D110F0625C30D160
:1005C00010EA010343D06046013C5C44B4FBFBF4F9
:1005D0000BFB04F4002D60D0AAEB050CA444664587
:1005E000FFF47EAF00286AD1BAF1040F45D158F864
:1005F000040B206004344FF0040A28E0013A002381
:1006000025E0019B13F8013C6C2B33D1019B13F8BF
:10061000023C00206C2B0346C4D14FF0080BDA4695
:10062000D2E708F1070828F007080734F8E802AB1A
:1006300024F0070435B106982044B0423FF650AF8D
:10064000C4E900AB083400234FF0080BDA460199E7
:1006500011F8010F0191002800F0BB80002B7FF4FE
:1006600071AF2528F3D1013201234FF0040BEDE7E0
:10067000184696E700200346A6E7BAF1080F40F0B7
:100680009A8008F1070828F00708F8E80201C4E991
:10069000000108344FF0080AD9E780B9BAF1040F15
:1006A00002D108F10408A5E7BAF1080F40F08380F1
:1006B00008F1070828F0070808F10808E9E7059994
:1006C0000139059158F8041B009121E70399880727
:1006D0004AD5A4EB050E4FEA9E004FF0010CBEF583
:1006E000007F1ED32849294A294840F27B2308F07D
:1006F000B8FA284808F0B5FA40F27B21234808F000
:10070000A9FA0F2F0FD8002D48D007F140010DEBAB
:10071000010C0CF8200C0CF8102C049801300490FB
:1007200021E00F2F0CD91849184A19484FF42073AB
:1007300008F097FA184808F094FA4FF42071DDE7B2
:10074000CDB107F140010DEB010EC0B20EF8200C47
:100750000EF8102CBCF1000FDFD060F07F000EF817
:10076000200C09F101090137C5F108010434069193
:100770004FF6DA7E6BE7BCF1000F0FD00136F2E7DF
:10078000809600006CBA0000C0A100001F9D000010
:100790008A9B00004D9D00006E9D0000029802366D
:1007A0000028E0D10098CDE90632FFF7A9FCDDE989
:1007B00006320644D7E7444A4449454840F2C52337
:1007C00008F04FFA5146434808F04BFA40F2C52171
:1007D00094E7631BB3F5806F0CD33C493A4A3C481D
:1007E00040F2D12308F03DFA3B4808F03AFA40F2D3
:1007F000D12183E71DB9A6F10804E01872E6029A38
:1008000028609B082B709DF81030C2B1EB7085F802
:100810000290B9F1000F05D008A80022C5F1010C23
:1008200097420ED1C5F101030DF120084FF0000AE7
:1008300001930DF1300B574512D1601B52E66B70DE
:10084000E5E710F8013B190608D504EB0C0E7645D8
:1008500003F07F03FFF444AE04F8013B0132DFE70D
:10086000B9F1000F03D098F90020002A17DB029B92
:10087000D3B11AF80B2004F8012B0022019B981821
:1008800020448642FFF42CAE98F8000004F8010BD7
:1008900000990392204608F0CBFE039A14440AF113
:1008A000010A08F10108C6E798F8002055F822303F
:1008B0000093029B45F822300098FFF721FC421C70
:1008C000DCE76FF00D000DE61F9D0000C0A10000E9
:1008D0008A9B0000889D00009D9D00002DE9F04F3F
:1008E00095B000AF8A467A62BB61044658B9A84900
:1008F000A84AA9484FF4657308F0B3F94FF465713D
:10090000A44808F0A7F9BB6F90F802B0C3F3C00386
:100910003B6141B9457800780BEB80002044554598
:1009200017D8A0EB040AE3787B61BBF1000F02D07B
:10093000BB6FD80716D47B6953BB7B6A1BB1BA69FE
:10094000514620469847554628465437BD46BDE88F
:10095000F08F461C3046FFF7D3FB013030440AF1DC
:10096000010ADCE723783B629B00FB603B6A62681C
:10097000FA6104EB83097B6A002B40F0FF80554647
:10098000C84609EB0B0A0026C24551D1D94413E0F1
:10099000BB6F9907D1D523783B6299469B00FB60DA
:1009A0006368FB617B6A04EB8909002B7AD15546A9
:1009B000BBF1000F4FD15E46BB6F13F0050F7B6993
:1009C00009EB430ABB6F03F002030CBF4FF0020BAD
:1009D0004FF0010B7B62D145B6D019F8021B19F814
:1009E000013C54F823806D4B984502D36C4B9845DD
:1009F00038D33B69002B42D0F86908F063F800282F
:100A00003DD0E8468AB06A46664B5361FB69C2E94D
:100A100006314FF400731384634B42F8103F634870
:100A200000234FF4125101F00BFA023DC546D2E704
:100A300018F8013B54F82300FFF762FBFB6F01300D
:100A40003BB1D7F880309E423EBFFB6F23F81600C3
:100A50000136054498E7BB6F13F004061CBF7E6A9D
:100A6000D944A9E73B6923B1F86908F02BF80028BD
:100A7000C7D1BB6FDA0705D4A5EB0B05ABE77B6AE3
:100A8000002BA8D04046FFF73BFBFB6F43B1D7F8E4
:100A900080309E423FBFFA6F431C22F81630013669
:100AA000054498E7BBF1000F6ED0BB6F13F004064E
:100AB0007ED0D846002607F140005A46494608F045
:100AC000B7FD7B695B007B607B69D94409EB43031D
:100AD000BB60BB6F03F002033B60BB68994569D103
:100AE000B96F6378B86F890706EB030254BF4FEA0A
:100AF00058010021C507D2B200F1E08010F0040FC8
:100B000014BF40460020FB616270A070E170BA69BA
:100B1000F9687B6A20469847051EFFF615AF3B6AC9
:100B20002370FB6963707B69E3704146BA697B6A35
:100B300084F802B007F140009847B0F10008C0F215
:100B4000EA80FB68BA69AAEB0B01C91A7B684846C0
:100B5000C91A7B6A98470028C0F2DF80A84408EBD6
:100B600000054FF0000B07F1300AB345C0F0A88034
:100B70000021BA697B6A08469847E5E65E464FF071
:100B8000000807F1300098E75E46D84699E700BFB5
:100B9000B49D00001F9D00008A9B0000809600000D
:100BA0006CBA0000CF9D000004000001889800008E
:100BB000B04686E719F8021B594B19F8015C54F846
:100BC0002500984202D3574B984216D33B692BB16C
:100BD000F86907F077FF00287FF47FAF3B68002BB0
:100BE0004AD00F2E3ED95049504A514840F24A430C
:100BF00008F037F840F24A4182E63B692BB1F869C8
:100C000007F060FF00287FF468AFBB6FDB070BD5F0
:100C10000F2E27D94449454A45484FF4886308F0C8
:100C200020F84FF488616BE6BB6F58077FF555AF2E
:100C3000B8F10F0F09D93F493C4A3D4840F24343C0
:100C400008F00FF840F243415AE608F1280307F193
:100C5000280208F1010103EB020808F8105C5FFAB2
:100C600081F83AE706F1280307F12802711C9E1863
:100C700006F8205CCEB230E7B8F10F0F09D92D4944
:100C80002A4A2B4840F24D4307F0EBFF40F24D411A
:100C900036E608F1280307F1280208F1010003EB0A
:100CA000020C07F1500353FA80F008F102080CF827
:100CB000101C5FFA88F800F8105C0EE7002022E7AD
:100CC0001BF80A3087F82F3054F82390FB6FFBB1E4
:100CD00033F81B80BA697B6A012107F12F0098471E
:100CE00000281ADB0544B8F1000F06D14846FFF78B
:100CF00007FA00F101081FFA88F8BA697B6A4146D1
:100D000048469847002808DB05440BF1010B2CE707
:100D1000D7F87C80DEE7454616E6054614E600BFB8
:100D2000809600006CBA0000729E00001F9D0000BB
:100D30008A9B0000919E0000014B1860704700BF25
:100D40000000002080B505460E461746984606F07E
:100D5000FDFD034608F08AFCDFF81890044649F8C8
:100D60000030424630463946A84754F8090002F0A0
:100D7000DFF800BF08000000B2F5802F2DE9F04138
:100D80000ED33C493C4A3D4840F2EB1307F069FF63
:100D90003B4807F066FF40F2EB11374807F05AFF77
:100DA000042A0CD83749344A34484FF4F97307F011
:100DB00058FF354807F055FF4FF4F971EDE7043A55
:100DC000CD1D8E1825F0070526F00706761B172E79
:100DD0004FEAD6070CD82D49274A284840F2FB1382
:100DE00007F03FFF284807F03CFF40F2FB11D4E733
:100DF000B7FA87F4C4F12002C4F12404A400073434
:100E0000E408631C4FF00008BB420560AF60C5F802
:100E10000C800CD91E49184A18484FF4037307F088
:100E200020FF194807F01DFF4FF40371B5E7414655
:100E3000920005F1100008F009FC630043F0010383
:100E40006B8005EBC4023B1B5900A5F80080518064
:100E5000AA1925F83440A2F80280AB5305EBC7036A
:100E600021465A8842F001025A802846BDE8F041E6
:100E700007F063BE8E9F0000C29E00008A9B0000A8
:100E8000A49F0000BB9F0000DC9F0000F59F0000B6
:100E90001EA000002DE9F84F04460846A38B190751
:100EA000154612D4022803F0070165D1204607F049
:100EB0006BFE88B10138042800F23781DFE810F0BA
:100EC0005C0035018200D400040101280CBF43F00E
:100ED000100143F02001A1831434204605F0E8F905
:100EE000002840F09F819A499A4A9B4840F231136A
:100EF00007F0B7FE2146B1E003F00702501F0128BA
:100F00001ED80020062A2768C4E9000014D13A46FA
:100F100003E0E08B0130E0831268002AF9D123F06E
:100F2000070343F00202A283204607F02DFE90B390
:100F300042F02002A2832EE023F007039AB2F2E7E8
:100F4000042A33D123F007039AB2A283204607F084
:100F50001BFE10B142F02002A283A38B03F007090D
:100F6000894540F0EC80A18BCA0640F1528121F006
:100F70001003A38301F00701D4F81880A38BB8F104
:100F8000000FB9DA0022276823F00703C4E9002222
:100F900043F00103A383A38B03F00709894540F0C5
:100FA000CF80002FDFD00026B24644E06B496C4A68
:100FB000694840F21B1307F054FE40F21B116848C9
:100FC00007F048FE49B16749654A63484FF4AB737F
:100FD00007F047FE4FF4AB71F1E723684BB9624964
:100FE0005F4A5D4840F2571307F03BFE40F257114D
:100FF000E5E723691E684EB95C49594A56484FF4E3
:10100000AD7307F02EFE4FF4AD71D8E7A38B23F03C
:10101000070343F006039BB2A3830F4688464FF0B5
:101020000609A268002A40F08D80002F40F08D80D4
:10103000002E98D0BA4643F0080304F1140BA383A2
:10104000584605F035F9002840F09A804049414A59
:10105000414840F2311307F004FE5946444807F076
:1010600000FE40F23111AFE0022909D041493C4A6B
:10107000394840F25D1307F0F4FD40F25D119EE740
:10108000E78B4FB13C49364A33484FF4AF7307F012
:10109000E8FD4FF4AF7192E723695E684EB93349BA
:1010A0002F4A2D4840F2611307F0DBFD40F2611139
:1010B00085E7A38B23F0070343F004039BB2A383CC
:1010C000B8464FF00409ACE7012909D02B49244A5E
:1010D00021484FF4B27307F0C4FD4FF4B2716EE7CC
:1010E00023684BB920491E4A1B4840F2651307F09C
:1010F000B8FD40F2651162E723699E684EB91B494D
:10110000174A15484FF4B47307F0ABFD4FF4B471B0
:1011100055E7A38B23F0070343F005039BB2002799
:10112000A383B8464FF005097BE70C490C4A0A48EF
:1011300040F26B1307F095FD40F26B113FE700277B
:1011400000266EE74FF0010A75E7924673E700BF8D
:1011500019A10000ECA000008A9B0000C0A10000C3
:1011600049A000006BA0000077A000009AA000003A
:1011700030A10000B1A00000C7A00000D6A0000070
:1011800085F31188BFF36F8FBAF1000F1ED1002FC6
:101190002FD116B126492046B0474FF02003EFF378
:1011A000118583F31288BFF36F8F584605F072F8EC
:1011B00038BB204A20492148882307F052FD594670
:1011C0001F4807F04EFD88211A48F9E6A16800295A
:1011D000DDD00D680029DAD0D1F804A043464A4694
:1011E0002046D0471DB12B6829461D46F2E72B4605
:1011F000FAE7394643464A4620463F6807F0F0FC86
:10120000C5E7584605F064F8A38B23F00803A383D1
:10121000A9E68B067FF560AE21F02003A38301F0E1
:10122000070143E685F31188BFF36F8FBDE8F88FA0
:1012300045120000ECA0000045A100008A9B0000C0
:101240005AA10000F8B504460D4600F114064FF00F
:101250002003EFF3118783F31288BFF36F8F3046BB
:1012600005F018F868B90C4A0C490D48882307F0B6
:10127000F8FC0C48314607F0F4FC0748882107F0D9
:10128000E9FC304605F024F8A5613A4620460121E4
:10129000BDE8F840FFF7FEBDECA0000045A100004E
:1012A0008A9B00005AA100002DE9F04704460F4632
:1012B00007F086FC051E69DB04F114094FF02003DA
:1012C000EFF3118A83F31288BFF36F8F484604F05F
:1012D000E1FF804660B9394A39493A48882307F026
:1012E000C0FC4946384807F0BCFC8821334842E03E
:1012F000484604F0EDFFE38BA68B4FF6FF72934256
:1013000006F0070645D0022E15D10133E38335469A
:10131000484604F0CDFF002841D1284A2B492948EE
:1013200040F2311307F09DFC4946294807F099FC2B
:1013300040F23111DAE7062E13D8DFE806F0092D66
:101340001212090409006FF085054FF00008DFE76D
:1013500000233B60636883B9C4E9007786B13546F2
:10136000F3E71C4917481C4A4FF4E47307F079FC73
:1013700019484FF4E47107F06DFC1F606760EDE7FA
:10138000524602212046FFF785FD35462846BDE836
:10139000F0876FF00A05D8E76FF00405D5E78AF308
:1013A0001188BFF36F8FB8F1000FEFD000233246E2
:1013B0003946204607F014FCE8E700BFECA0000027
:1013C00045A100008A9B00005AA1000019A100005D
:1013D00030A10000D6A0000049A0000008B5426876
:1013E000816002F00302032A034602D02AB10020E2
:1013F00000E0006800225A6008BD05490548064A19
:10140000452307F02EFC0448452107F023FC00BFCC
:10141000C0A100008A9B000070A1000038B50D46F5
:1014200004462022002108F011F9EB68E361AB6863
:10143000A3612B6823626B6863620022A2622A693F
:1014400023B1591E194208BF42F001022261012254
:10145000002104F12C0008F03EF848B10549064887
:10146000064A2E2307F0FDFB04482E2107F0F2FB6D
:1014700038BD00BFB9A100008A9B000093A1000005
:101480002DE9F04F89B0CDE90123436A00278B4253
:101490000446884605970797BA4653D300F11406C9
:1014A0004FF02003EFF3118B83F31288BFF36F8F9C
:1014B0003046D94604F0EEFE58B94C4A4C494D48E6
:1014C000882307F0CEFB31464B4807F0CAFB882142
:1014D00060E0304604F0FCFE079A2AB13946204607
:1014E00007F09EFC0023079306A9204607F0C6FBE1
:1014F0000699414505462ED32268236A13F8221027
:1015000021F0030103F8221003EB820A216842460E
:10151000204607F0D7FBE3682060984216D00025EC
:10152000304604F0C5FE40B389F31188BFF36F8FD6
:10153000059929B1A2690AB1204690470023059375
:10154000002DADD1504609B0BDE8F08F236943F0BE
:1015500008032361E3E718B1204607F0CDFBDFE77E
:10156000DDE90132134338D0039107F09DFF039961
:1015700098BB304604F09CFE78B91C4A1F491D48B0
:1015800040F2311307F06DFB31461D4807F069FB4F
:1015900040F23111154807F05DFB8BF31188BFF362
:1015A0006F8FDDE9012304F12C0005F077F8054683
:1015B0004FF02003EFF3118983F31288BFF36F8F8D
:1015C000304604F067FE00283FF477AF3046B5FAA6
:1015D00085F504F07DFE6D09A2E707AB05AA20465C
:1015E000276807F0A6FB05469AE700BFECA00000BD
:1015F00045A100008A9B00005AA1000019A100002B
:1016000030A100002DE9F0410446C36908460E46AA
:10161000984704F1140507464FF02003EFF31188B3
:1016200083F31288BFF36F8F284604F033FE68B946
:101630001A4A1B491B48882307F013FB29461A48FE
:1016400007F00FFB8821154807F004FB284604F03B
:101650003FFE337843F00103337061683A46204619
:1016600007F030FB6060204607F0F5FB284604F0E9
:101670001FFE68B9094A0D490A4840F2311307F0C4
:10168000F0FA29460A4807F0ECFA40F23111DAE79D
:1016900088F31188BFF36F8FBDE8F081ECA00000E4
:1016A00045A100008A9B00005AA1000019A100007A
:1016B00030A100002DE9F843044600F114074FF073
:1016C0002003EFF3118883F31288BFF36F8F38463E
:1016D00004F0E0FD054668B9354A364936488823A6
:1016E00007F0BFFA3946354807F0BBFA8821304881
:1016F00007F0B0FA384604F0EBFD2369A26813F056
:10170000080F02D163689A4200D9636A9B1A002BC2
:101710003FD0216A11F8223013F0030001EB820957
:101720003AD0022803D151F82260B60805D1D80773
:101730001FD4E369484698470646A16832462046CA
:1017400007F0C0FA3146A060204607F0C9FA3846D3
:1017500004F0AEFD10BB164A1949174840F2311388
:1017600007F07FFA3946174807F07BFA40F231114B
:10177000BDE743F0020301F822304846E369A5685B
:10178000984729460246204607F09CFA0025A060AB
:10179000DDE71D46A946DAE70546FBE788F3118831
:1017A000BFF36F8F002D8AD14846BDE8F88300BF94
:1017B000ECA0000045A100008A9B00005AA1000097
:1017C00019A1000030A100002DE9F0410446C369D1
:1017D00008460D46984704F1140607464FF02003CB
:1017E000EFF3118883F31288BFF36F8F304604F054
:1017F00051FD68B9274A28492848882307F031FA5B
:101800003146274807F02DFA8821224807F022FAAE
:10181000304604F05DFD2B786FF300032B702369D5
:101820009B0705D5E268236A03EB82039D4222D120
:101830002B786FF341032B70D4E90231994204D124
:101840003A46204607F03EFAA0603946204607F0A7
:1018500047FA304604F02CFD90B90E4A11490F4862
:1018600040F2311307F0FDF931460F4807F0F9F95E
:1018700040F23111C9E72B6867F39F032B60E8E75B
:1018800088F31188BFF36F8F04F12C00BDE8F0419D
:1018900004F0ACBEECA0000045A100008A9B000053
:1018A0005AA1000019A1000030A1000008B50446AB
:1018B0004FF02002EFF3118382F31288BFF36F8F92
:1018C00002F090FD204601F0DDFA034807F021F90F
:1018D00001F072FCFCE700BFC2A100002DE9F84F47
:1018E000DFF8FCA03F4FAAEB07039F2B81468846F9
:1018F0000BD93D493D4A3E4840F2251307F0B1F966
:1019000040F22511394807F0A5F93A4807F0D2FA14
:101910000646002834D13C4605464FF0010B54459D
:1019200027D93549314A32484FF4997307F099F96C
:10193000324807F096F94FF49971E3E7237B73B1CE
:101940002368DB680BB12046984723681B6943B9BD
:10195000636804221968204600F04CFA01361034FE
:10196000DDE7204698470028F2D00BFA06F31D4326
:10197000F4E7E3D3B9F1000F02D04FF0010A0DB93B
:10198000BDE8F88FA94695FAA5F4B4FA84F40AFAEA
:1019900004F3260107EB04146FEA030B25EA0305A1
:1019A000237B5BB1BB591B69A3B93E440422736816
:1019B0002046196809EA0B0900F01CFA002DE2D153
:1019C000B8F1000F04D04FF4A470002105F08AFF95
:1019D0004D46D4E7204698470028EFD1E5E700BF01
:1019E000F8980000D898000018A20000EBA10000B1
:1019F0008A9B00009C0700203CA200005DA2000022
:101A0000014B53F8200070471C99000008B50346AD
:101A100008462BB1044A136000F038FD002008BDD1
:101A20006FF01500FBE700BF04000020014B01220E
:101A30001A707047B610002010B50446084807F029
:101A400039FA5CB1BFF35B8F064B53E8001F0139D5
:101A500043E80012002AF8D1BFF35B8F10BD00BF2E
:101A600094070020980700200020064BBFF35B8FEF
:101A7000014653E8000F43E80012002AF9D1BFF3F2
:101A80005B8F70479407002070B5FFF7EDFF104C97
:101A9000104E0546B44219D90F49104A104840F279
:101AA000DD1307F0DEF80F4807F0DBF80B4840F2D3
:101AB000DD1107F0CFF863685B792BB123685B68B1
:101AC00013B12946204698471034E3E7F3D370BD9D
:101AD000D8980000F89800003CA20000EBA100009C
:101AE0008A9B00005DA2000010B5044C044920460A
:101AF000FFF794FC034B1C6010BD00BF5401002095
:101B0000089900008C070020084A094808B50023FE
:101B10001370084A1360084A4FF400411360FFF73E
:101B200075FFBDE80840FFF7DFBF00BFB71000201A
:101B3000B18E000094070020980700200146002283
:101B400001480023FFF79CBC540100200148FFF727
:101B5000B1BD00BF54010020024B01461868FFF7D9
:101B600033BE00BF8C070020014807F081B900BFD9
:101B70005401002070B5304B187800285BD0FFF777
:101B8000E5FF054660B3BFF35B8F2C4B53E8001FA6
:101B9000013943E80012002AF8D1BFF35B8F284CCB
:101BA000284EB44218D92849284A294840F2D1136E
:101BB00007F057F8274807F054F8244840F2D111AD
:101BC00007F048F863685B7923B1236829461B68EE
:101BD000204698471034E4E7F4D32846FFF7BCFFCB
:101BE0001D4B1E4C1B68002B19DD07F09EFC4FF4AB
:101BF0007A72A0FB020302FB0131C30BD4E900207F
:101C000043EA41439B1A4FEAD13140F2E93261EB9A
:101C10000001934271F1000101D3FFF735FFD4E9D0
:101C2000003213F57A7342F10002C4E90032BDE8D4
:101C30007040FFF799BF70BDB610002098070020D4
:101C4000D8980000F89800003CA20000EBA100002A
:101C50008A9B00005DA20000940700200806002077
:101C600013B52B4807F026F92A4B1B78002B36D0EA
:101C70004FF02003EFF3118483F31288BFF36F8FCB
:101C8000254804F007FB68B9244A254925488823DC
:101C900006F0E7FF2049244806F0E3FF88211F48AB
:101CA00006F0D8FF1C4804F013FBFFF763FF1A4847
:101CB00004F0FEFA68B9194A1C491A4840F2311377
:101CC00006F0CFFF14491A4806F0CBFF40F231115D
:101CD000E5E784F31188BFF36F8F02B010BD154B99
:101CE0001B68002BF9D038B9002200231248CDE937
:101CF000002306F0CBF9F0E70928EED10E4807F0F3
:101D000016FC0E4802B0BDE8104004F06FBC00BFE6
:101D100098070020B710002088070020ECA00000E2
:101D200045A100008A9B00005AA1000019A10000F3
:101D300030A100009007002010060020F8010020CC
:101D400010B5064B1B68044698472146A06004481E
:101D5000FFF758FCBDE81040FFF782BF04000020E9
:101D60005401002070B5154D297829BB0120FFF7DB
:101D7000B5FD134C134EB44217D91349134A1448F6
:101D80004FF4CA7306F06DFF124806F06AFF0F4861
:101D90004FF4CA7106F05EFF63685B791BB123687C
:101DA00020469B6898471034E5E7F5D3FFF7E2FE3D
:101DB0000028FBD101232B7070BD00BFB71000209D
:101DC000D8980000F89800003CA20000EBA10000A9
:101DD0008A9B00005DA20000044A054B9B1AB1EBF0
:101DE000D30F34BF52F831000020704780980000B4
:101DF000D89800000E4BC31A1B11013310B5DBB28B
:101E000048B90C490C480D4ADF2306F02AFF0B485D
:101E1000DF2106F01FFF4468237143689A7143680D
:101E20001960436801225A71BDE81040FFF7FEBDFA
:101E3000D898000000A300008A9B0000C8A2000000
:101E40002DE9F04F8FB004AFC1F34A28B8600D46BA
:101E500091467B600C0DB8F1000F68D0002607F1A9
:101E600014034FF0040B4FF00A0AC7F80C80C7E9BF
:101E700007667E620193CDF808B0CDF800A007F1A7
:101E80001C03F96832464846FEF728FDB0F5006F9E
:101E900003461CD36C468AB0D9F8041004AB2C4816
:101EA000C3E9050140F2FF71D9611A464FF4007190
:101EB0001984284B42F8103F274833464FF41251FB
:101EC000FFF7BEFFA5462C37BD46BDE8F08FC0F337
:101ED0000A0804F11700184420F0070080083B604E
:101EE000FFF72CFE68F35325044640B33B681B4ABA
:101EF000C7E9083600F1100107F11403F961CDE9D3
:101F000000A3CDF808B0F96807F11C034846FEF7B6
:101F1000E5FC002813DA12491248134A4FF485737E
:101F200006F09FFE10484FF4857106F093FE04F111
:101F3000170020F007008008FFF700FE044668F352
:101F400053257B68B9682A46204606F0F4FFBAE7B5
:101F500020A3000004000001A09800000B8F0000E7
:101F60008CA300008A9B00005FA300002DE9F04FC6
:101F700087B0DDE91269DDE9105A04460F46934641
:101F80009846BEB11021CDF800903346524600204D
:101F9000CDF81490FEF78CFA011E0CDA2149224A82
:101FA00022484FF4957306F05CFE4FF495711E487D
:101FB00006F050FE314605F1170008441C4B039112
:101FC00004F007040BF0070BE40020F0070003EA1D
:101FD000412344EA8B1480081C43FFF7AFFD44EA19
:101FE00005540546A0B19EB10399CDF80090334643
:101FF00052461030FEF75CFA002809DA09490A4A0D
:102000000A484FF4A27306F02CFE4FF4A271CEE7FB
:10201000434622463946284607B0BDE8F04F06F051
:102020008ABF00BF8BA300005FA300008A9B000053
:1020300000FE0F000EB403B503AB014653F8042BAA
:102040000448019301F0E8FA02B05DF804EB03B034
:10205000704700BF75200000CA0605D48B064CBF30
:1020600002490349FFF7E6BF704700BFADB6000065
:1020700095A3000038B54B681A68CB689A420546AC
:102080000C4602D1084606F0D2FF6368BFF35B8FAF
:1020900053E8002F511C43E800100028F8D1BFF38B
:1020A0005B8FA3689D5463681A68E3689A4209D9F4
:1020B00005490648064A7A2306F0D3FD04487A21EA
:1020C00006F0C8FD002038BDC7A300008A9B0000B1
:1020D00098A300002DE9F04F89B09B46DDE91493E9
:1020E0009DF84C700593169B179E069204460D466C
:1020F0000493002F00F09480042F0BD999499A4A39
:102100009A4840F2BF1306F0ACFD40F2BF1196486A
:1021100006F0A0FD06F00803079306F0F4FE06F0B3
:10212000020A024600284AD091492046FFF782FF62
:102130008046BAF1000F08D016F0440F41D18D4906
:102140002A462046FFF776FF804406F0010353B18C
:10215000894B8A4953F82720894B2046002A08BF1B
:102160001A46FFF767FF06F00803002B55D0854B92
:10217000854953F827202046FFF75CFF0546069B5C
:102180002BB182491A462046FFF754FF0544BBF1A4
:10219000000F05D07E495A462046FFF74BFF054405
:1021A0004544B9F1000F4CD1049B002B61D1F307DA
:1021B00000F1D28031462046FFF74EFFC6E0804650
:1021C000B7E7744B18680028BED0734B4FF47A7E83
:1021D0001B68B5FBF3F54FF46162B5FBF0F300FB50
:1021E0001355B3FBF2FA0EFB05F502FB1A323C2144
:1021F000B5FBF0FCB2FBF1F300FB1C5501FB132215
:102200000EFB05F50092B5FBF0F56449CDE901C57B
:1022100052462046FFF70EFF96E706F00805AEE7A8
:10222000BBF1010F08D1B9F1000F1CD1049B002BA9
:1022300000F08C8000251CE0B9F1000FF6D0584862
:1022400012E0584858494B46224606F00AFC00283E
:102250000CDA5649444A454840F2192306F001FD7C
:1022600040F2192153E74F483D46EBE7049B002B12
:1022700069D0DFF83C91DFF83CA1DDF810803146F1
:10228000B8F1100F204628BF4FF01008FFF7E4FE0A
:102290004FF0000B5D4542DC059B51461A78204605
:1022A000FFF7C8FE4FF0010B1BF0070F03D14946A3
:1022B0002046FFF7BFFED84538D9059B514613F895
:1022C0000B202046FFF7B6FE0BF1010BBBF1100F00
:1022D000EAD1394920464FF0000BFFF7ABFE5A46D2
:1022E000059B9A5CA2F120015F2928BF2E22334969
:1022F0002046FFF79FFE0BF1010BBBF1100F1AD028
:102300001BF0070F03D149462046FFF793FED8453F
:102310005A46E5D849462046FFF78CFEEBE749468A
:102320002046FFF787FE0BF1010BB3E72449204657
:10233000FFF780FEC8E7059B43440593049BB3EB7E
:102340000803049399D1002F7FF431AF204609B0E0
:10235000BDE8F04F06F06BBE094A08492046FFF77A
:1023600069FE27E7FCA3000098A300008A9B0000F9
:1023700008A400000CA400002C9900009A9C000006
:10238000F7A300004099000031A4000037A400002A
:102390003BA40000A4070020A007002015A4000013
:1023A00049900000752000001936000040A400008C
:1023B00051A4000049A4000053A4000055A400004B
:1023C0004FA400002DE9F0410F884B688E6886B05D
:1023D00005460C469046C7F382175BB1144A9B1A18
:1023E00043F3CF01002920DB2078C0F3C200FFF7C0
:1023F000F3FC03462146608851F8102B0197C2F385
:102400004A22002A01EB0204C0F30B1008BF00218E
:102410000022CDE90408CDE9021400923146284695
:10242000FFF758FE06B0BDE8F0810023E2E700BFE9
:102430008098000073B542F20F738B4228BF0B46A1
:1024400005680F4A04460521684606F081F863686E
:102450000C495B6806460B22284606F0DBFD6368E4
:102460003246694628465B6806F0D4FD6368064933
:102470005B681B22284606F0CDFD02B070BD00BF90
:10248000129C000074A4000058A40000074A002118
:102490000123904206D8064A01B901231360054B77
:1024A0001860704740085B000121F2E740420F00CE
:1024B000A0070020A4070020014B01221A707047DA
:1024C000B8100020014B002019607047BC070020A5
:1024D000024B034801221A7006F0A9BDB910002072
:1024E000709900000148FFF7A5BF00BF7099000078
:1024F00010B5064B18680C46FFF782FA21460346D2
:10250000BDE8104002480F22184700BFBC0700205A
:102510007099000010B9074B18707047064B1B7874
:102520001BB141F2883006F087BFA420002105F0DE
:10253000D9B900BFB8100020B91000202DE9F84328
:10254000DFF874901D4F80460E46042499F8005021
:1025500095B903F0EDFA28463246414603F09AFA5F
:10256000054603F0EFFAE5B101233B7099F800301E
:1025700073B93046BDE8F88332464146002003F087
:1025800089FA0546EFE72046FFF7C4FF651E2C4693
:10259000002003F0C3FA0028EBD03B78002BF2D1E7
:1025A000E7E73B78002BE4D0013C2046FFF7B2FF81
:1025B0003B78002BCAD1DCE7B9100020B81000200E
:1025C000F8B5074F0D4604464618B44201D12846D7
:1025D000F8BD14F8011BBB6801485B689847F4E735
:1025E000EC96000010B543681C68094806F028FF07
:1025F00048B908490848094A9A2306F032FB0748B7
:102600009A2106F027FB23685B685C6010BD00BF61
:10261000EC960000EEA400008A9B0000B0A400002D
:10262000014B036000207047B4990000014805F099
:10263000E7BD00BFB499000038B5044618B90F4B88
:102640000F485B6898476168B1F5683F10D0B1F5F5
:10265000680F0DD00B4DA9420AD011F468612068B3
:1026600007D00146084803F0B5FC002323606560ED
:1026700038BD142206F0EAFFF9E700BFEC000020A5
:1026800022A500002C5F5CA9E40C002008B520B353
:102690004368B3F5683F10D101220368BFF35B8F35
:1026A00053E8001F002903D143E800200028F7D198
:1026B000BFF35B8F0DD1002008BD094A93420AD0B9
:1026C00000684FF0FF324FF0FF3303F0BDFE0028EB
:1026D000F1D00448F0E70448EEE76FF4E040EBE7A0
:1026E0002C5F5CA9E98FFFFFEA8FFFFF08B5D8B127
:1026F0004368B3F5683F10D100220368BFF35B8FD6
:1027000053E8001F012903D143E800200028F7D136
:10271000BFF35B8F0BD1002008BD074A934208D05E
:10272000006803F001FEF6E76FF4E040F4E70348C9
:10273000F2E70348F0E700BF2C5F5CA9E98FFFFFD9
:10274000EA8FFFFF10B5044618B91D4B1D485B68A2
:1027500098476368B3F5683F2FD0B3F5680F2CD066
:10276000194A934219D1236803BB18484FF0FF322E
:102770004FF0FF33214603F0C1FB08B923681BB9B2
:102780000F4B13485B68984720681422002106F01D
:102790005DFF4FF46863636008E0B3F5683F0DD8F0
:1027A0003A2B03D040F6BA629342DED1206806F09D
:1027B0008BFE636843F03A03636010BD054AF3E79C
:1027C000EC00002022A500002C5F5CA9E40C002096
:1027D00048A500003A00003A08B5064906484023DB
:1027E000142206F052FEBDE808400449044805F0F2
:1027F00079BD00BFE4070020E40C0020BC99000074
:10280000D09900002DE9F047804600AF0C46002922
:1028100036D0E9468AB0D1E90012A3686D461C485B
:102820002E464FF0050AC5E90501C5E9072346F81C
:1028300010AF1848324600234FF42151FFF700FB38
:10284000CD46D4E903126369AD461348C5F810A01C
:10285000C5E90501C5E907230E48002332464FF4B8
:102860002151FFF7EDFACD46E3690C4A09480121F1
:1028700006F0BAFBA3690A4A0648012106F0B4FB38
:102880002146404603F086F9BD46BDE8F08700BF0B
:1028900075A50000C0980000A4A50000D3A5000005
:1028A000E2A5000030BFFFF7FDBF00BF114B124A89
:1028B0002DE9F041D518DFF84480013DB5FBF3F573
:1028C0005D430F4B08EB0304013CB4FBF3F403FB43
:1028D00004540E1B07460B49304606F0A9FE70193A
:1028E00042460021083E06F0B1FE3E6704F10800B2
:1028F000BDE8F081010000000000000004000000BD
:1029000004000000F8980000044B99685869884258
:1029100003D003494FF080520A6070478C0E0020AC
:1029200004ED00E070B5294C06460D4628482949BB
:1029300006F0C9FBA36AD9043CD52548264906F010
:10294000C2FB1720A36A1A0504D52148234906F0C3
:10295000BAFB18201D4CA36A9B0512D51C482049C0
:1029600006F0B1FBA36BA26A100409D51D4A1848F2
:10297000012106F039FB1EB1A36A23F40043A362D0
:102980001920124CA36A590504D51148164906F0BE
:102990009AFB1A20A36ADA050ED50D48134906F0F2
:1029A00092FB1B20094A936A43F47F4393620023FE
:1029B0002B7070BD1620C5E7A36A9B04F2D50448AE
:1029C0000B4906F080FB1C20ECE700BF00ED00E0A7
:1029D000C098000010A6000026A6000037A6000040
:1029E0004AA6000063A6000078A6000093A6000097
:1029F000ABA6000010B5204C2049214806F063FB2F
:102A0000A36A990136D51E481E4906F05CFB1E20BC
:102A1000A36ADA0104D51A481B4906F054FB1F20AB
:102A2000154CA36A1B0304D51548184906F04BFB47
:102A30002120A36A590304D51148154906F043FB28
:102A400022200D4CA36A9A0304D50D48114906F0C3
:102A50003AFB2320A36ADB0304D509480E4906F09C
:102A600032FB2420044A936A6FEA03436FEA13435C
:102A7000936210BD1D20CBE700ED00E0DAA6000058
:102A8000C0980000F2A6000005A700001FA70000E4
:102A90003DA7000062A700007CA700002DE9F843D5
:102AA0003F4D804689463F483F49174606F00BFB9D
:102AB000AB6ADA0627D53D493A4806F004FB1124F3
:102AC000AB6A1B0704D53A49364806F0FCFA1224D3
:102AD000334DAB6A9E0718D53649324806F0F3FAF3
:102AE0006E6BAB6A1C0646D5334A2E48334601212D
:102AF00006F07AFAB9F1000F03D0AB6A23F0800335
:102B0000AB62132403E01024DAE76FF01506244DBE
:102B1000AB6AD80704D52949224806F0D4FA142410
:102B2000AB6A990604D526491E4806F0CCFA15244E
:102B30001B4DAB6ADA0602D4AB6A9B070AD56B68F9
:102B4000180507D54146304600F0FEFAB0B180F3D3
:102B500009880224124B9A6A920642BF5A6A22F4EA
:102B600000525A629A6A42F0FF029A6200233B7056
:102B70002046BDE8F8836FF01506C2E7AB6AD906B8
:102B8000E8D51049104A114840F25D1306F069F883
:102B90000F4806F066F80C4840F25D1106F05AF84E
:102BA00000ED00E0C0980000A7A70000BDA700004E
:102BB00037A60000F0A7000008A800001EA800002B
:102BC000ABA600006FA800003DA800008A9B000093
:102BD000B9A80000F0B5794B8BB00446586800AF37
:102BE000C0F30803002686F31188BFF36F8F02F04D
:102BF0007F45B5F17F4F07D102F00C05082D12D1AA
:102C00006F49704806F05FFA6F49704A70484FF498
:102C10008B6306F026F86F4806F023F84FF48B61BB
:102C20006A4806F017F815074CBF0C460126002C21
:102C3000EAD00022FA71DA1E092A00F29E80DFE84B
:102C400002F0059497779C9C9C9C9C9A62495D48F5
:102C50005A4D06F038FA0023FB71EB6A9A0705D546
:102C60005E49584806F02FFA002329E0EB6A002B52
:102C700001DA5B49F5E7EB6A5B0069D559495148D0
:102C800006F021FA6B69A26943F480736B61BFF3AC
:102C90004F8FBFF36F8F6B6932F8022C23F4807370
:102CA0006B61BFF34F8FBFF36F8F4DF602739A4284
:102CB00027D123684C4A4348012106F095F923683F
:102CC000FA79DAB907F1080504F1200C2068616887
:102CD0002A4603C2083464451546F7D17A6A002EA5
:102CE00067D0C2F3080121B96FEA52226FEA42228B
:102CF0007A6207F108011846FFF784FD2C37BD46BC
:102D0000F0BDAB6ADBB233B1FA1D01212046FFF7FB
:102D1000C5FE0346D4E7AB6A13F47F4F04D0F91D18
:102D20000120FFF7FFFDF4E7AB6AB3F5803F02D364
:102D3000FFF760FEEDE72D49244A254840F22A338B
:102D400005F08FFF2A4805F08CFF40F22A3167E733
:102D500026491E4A1E4840F22E3305F082FF2548C0
:102D600005F07FFF40F22E315AE7FA1D0021CDE732
:102D7000F91D0020D5E7204973E7204A204910F4C7
:102D8000F87F6D468AB018BF11466A46103BD36182
:102D90001C484FF4007313841B4BC2E9050142F831
:102DA000103F084800234FF41151FFF749F8AD4692
:102DB0005AE722F4FF7222F0010299E700ED00E0E9
:102DC0000AA90000C098000035A900003DA8000035
:102DD0008A9B000048A9000086A900009DA9000068
:102DE000BEA90000CCA90000EBA90000C0A1000012
:102DF00007AA00002BAA00005BAA0000F1A80000AF
:102E0000DCA800007FAA000004000001024A536908
:102E100043F010035361704700ED00E0EFF30880CA
:102E2000EFF3098101B57246FFF7D4FE01BD00BF83
:102E3000002080F31488BFF36F8F00F047FC002060
:102E40000D490860BFF34F8F0C4880F3088800F0ED
:102E50003DF8202080F3118809484FF404614018A0
:102E600080F30988EFF314800221084380F314886B
:102E7000BFF36F8F00F030F994ED00E0C022002026
:102E800000150020BFF34F8F0549064BCA6802F4B6
:102E9000E0621343CB60BFF34F8F00BFFDE700BF7D
:102EA00000ED00E00400FA050749D1F89020002366
:102EB000C2F307221846934200DB7047C1F89830EE
:102EC000C1F8A0000133F6E700ED00E008B572B6E6
:102ED000002383F31388FFF7E7FF144B4FF0FF3213
:102EE000C3F88020C3F88420C3F88820C3F88C205E
:102EF000C3F89020C3F89420C3F89820C3F89C200E
:102F0000C3F88021C3F88421C3F88821C3F88C2139
:102F1000C3F89021C3F89421C3F89821C3F89C21E9
:102F200062B6BFF34F8FBFF36F8F08BD00E100E0C3
:102F3000084B9B6883420BD1EFF3058343B1064BEB
:102F40005A6842F080525A605A6A22F400425A6229
:102F500004F002BD8C0E002000ED00E0094A9368E9
:102F60006FF00A019967084958674B6843F080532E
:102F70004B60002383F31188BFF36F8F9368986FC2
:102F8000704700BF8C0E002000ED00E015498A68F4
:102F90004FF030001044EFF3098C80E8F01F202040
:102FA00080F31288BFF36F8F0F4F4FF000664A69AE
:102FB0008A603E604FF07004141920680B4C20604A
:102FC000506F0023536780F3118804B5104600F05A
:102FD00039F9BDE8044002F1300090E8F01F8CF3AD
:102FE000098870478C0E002004ED00E0040D0020DD
:102FF0001EF0040F0CBFEFF30880EFF30980816926
:1030000011F8021C0229FFD001B506F051F801BDEC
:1030100040B2002807DB044A4109012300F01F00E9
:10302000834042F82130704700E100E040B20028C0
:103030000CDB4309064900F01F00203301228240C7
:1030400041F82320BFF34F8FBFF36F8F704700BF4E
:1030500000E100E0054B420900F01F0053F8222078
:10306000012303FA00F01040704700BF00E100E0C8
:1030700038B54B1C072B04460D460FD9114A12498F
:103080001248582305F0EDFD114829460723224632
:1030900005F0E7FD0B48582105F0DCFD40B20028A3
:1030A000ACBF00F160400B4A4FEA4313B8BF00F0D9
:1030B0000F00DBB2AABF00F56140135480F8003363
:1030C00038BD00BF92AA0000C9AA00008A9B000078
:1030D000E4AA000014ED00E00B4A08B50B4B22F007
:1030E0007F029A60BFF34F8FBFF36F8FD3F88820B2
:1030F00022F47002C3F8882002F016FE04F09CFC53
:1031000000F074F802F062FE0000000000ED00E044
:1031100042F8203C009B42F81C3C0A49019B42F8C3
:10312000183C029B42F8143C21F001014FF08073DF
:1031300042F8043C42F8081C0023203A0265436729
:10314000704700BF450D0000094A0346906870B102
:1031500013F1160F006E05D0A0F140029A4205D877
:10316000834203D2814228BF00207047002070476D
:103170008C0E002008B514460A4A0B4B9060026F73
:103180001A600D4600F05EF8204685F3098800219C
:1031900063B681F31188BFF36F8F00220023FDF720
:1031A000D1FD00BF8C0E0020040D0020014910222B
:1031B0000A60704710ED00E072B6404080F311885D
:1031C000BFF36F8FBFF34F8F30BF62B6BFF36F8F08
:1031D000704700BF72B6494081F31188BFF34F8F2B
:1031E00020BF80F3118862B6704700BF04480023F7
:1031F0002021C2180133302B82F80013F9D1704717
:1032000000E100E001B5EFF30580A0F110004FEA06
:10321000C0000449014409C99847BDE8014002497A
:10322000084700000097000009290000024B034AEC
:103230000348012100F084B80000042000000020B1
:10324000E0990000026E054B403A1A60044A4021A2
:10325000C3E901121846012100F098B8080D0020BA
:1032600000000B15072808B5034607D90C480D4A7E
:10327000012105F0B9FE6FF0150008BD0A48C0F83D
:1032800098300A6822F01F021A4342F01002C0F878
:103290009C208A6842F00102C0F8A0201846ECE7A2
:1032A000B898000028AB000000ED00E0F0B50E4635
:1032B00085B01F4604460025B5420DDA606810B39C
:1032C00097B1431E18420AD0104A11482B460121DB
:1032D00005F08AFE6FF01502104605B0F0BD1F28FC
:1032E000F2D921680B42EFD12368019305F0F3FE78
:1032F000A36801A90343D0B20393FFF7B3FF10F112
:10330000160FE7D0421C01350C34D5E74EAB000058
:10331000B8980000044B0522C3F89420BFF34F8FE8
:10332000BFF36F8F704700BF00ED00E0BFF35F8F0A
:10333000024B0022C3F89420704700BF00ED00E06C
:1033400038B50D4D01232A780C46FFF7AFFF2870E2
:1033500016300FD1094A0A490A4840F26D1305F0A8
:1033600080FC0948214605F07CFC044840F26D11C0
:1033700005F070FC38BD00BFCB10002071AB000021
:10338000C0A100008A9B0000A0AB000010B5124A4B
:10339000002312780C46FFF789FF10F1160F04D0B6
:1033A0000E4B0022072810DD10BD0D4A0D490E48B6
:1033B0004FF4C67305F055FC0C48214605F051FC4E
:1033C00007484FF4C67105F045FCC3F89800C3F8F0
:1033D000A0200130E6E700BFCB10002000ED00E0A8
:1033E00071AB0000C0A100008A9B0000CCAB0000C4
:1033F0002DE9F0436F490C68082C85B010D96E4A4E
:103400006E496F484FF4D27305F02BFC21466D488E
:10341000082205F026FC4FF4D271674805F01AFC2B
:10342000FFF784FF684849680022944201F10C01CB
:1034300021D1664EDFF8988134706846FFF7F0F8C6
:1034400000250746AF4229D1FFF764FF5E4BD3F852
:103450009030C3F30723082B00F0A8805D49564A3B
:10346000574840F20F2305F0FCFB5B4805F0F9FBE1
:1034700040F20F21D1E7C0F8982051F80C3C23F01E
:103480001F03134343F01003C0F89C3051F8043C71
:1034900043F00103C0F8A0300132C6E7009A02EB06
:1034A00005132901D3F80C9009EA0804B4F5000FBC
:1034B00068D01AD8B4F5001F3ED0B4F5800F55D0AF
:1034C000B4F5801F21D0454A4548012105F083FD10
:1034D0003A49394A3A484FF4E77305F0C2FB41488C
:1034E00005F0BFFB4FF4E77197E7B4F1807F53D04D
:1034F000B4F1007FE7D198685C68525805F0EBFDA5
:10350000CDE9014240F480200AE098685C68525896
:1035100005F0E1FDCDE9014240F0885040F4302053
:103520000390307801A9FFF79DFE0028D0DB3378A7
:1035300001333370013585E798685C68525805F0AF
:10354000CAFD40F0885040F4002019F0010FCDE989
:1035500001420390E5D02449174A1948702305F029
:1035600080FB224805F07DFB702156E798685C6877
:10357000525805F0B0FD40F0E060CDE9014240F462
:103580000030CDE798685C68525805F0A4FDCDE99D
:10359000014240F08270C3E798685C68525805F0B9
:1035A0009AFDCDE9014240F08870B9E7002005B0EE
:1035B000BDE8F083EC99000071AB0000C0A10000F1
:1035C0008A9B0000F9AB000000ED00E0CB1000206A
:1035D0000000F0FFCEAC00001EAD000082AC000089
:1035E000B8980000A4AC00002DAC000053AC000063
:1035F00008B5024B1B689847002008BD140D002039
:10360000034B044A1860937843F0020393707047A9
:10361000140D002030000020F0B587B007460E469C
:1036200014460021102268461D4606F00FF80223BA
:103630008DF802302A46054B019321466846CDE9B4
:10364000047604F0B1FF07B0F0BD00BFF7900000B2
:1036500008B50649064821F00701C1F1005202F5FC
:103660008022FDF789FB002008BD00BF0723002052
:10367000180D00200E4A0123C2F840354FF0804259
:103680004FF08051C2F87835D1F83001082808D1C0
:10369000D1F83411052904D80648415C09B1C2F8B3
:1036A00038364FF080430122C3F880250020704750
:1036B00000E001404EAD000020B1034B800143F01B
:1036C00001031847704700BF0099000000F0CCBE0E
:1036D00037B50C460A490B4A411A40230093491159
:1036E00005462346084805F024FD011E05DA284654
:1036F000234603B0BDE83040184703B030BD00BFDB
:10370000380D00209D910000D8960000C9B2012913
:1037100008B509D908490948094A7A2305F0A1FAE8
:1037200007487A2105F096FA03690C2201FB02335F
:10373000986C00F0070008BD95AD00008A9B000062
:1037400058AD000070B5C9B2012903690BD91949F8
:1037500019481A4A40F25D1305F083FA174840F2FF
:103760005D1105F077FA4FF02004EFF3118584F333
:103770001288BFF36F8F0C2606FB0134A46C14F083
:10378000C00408D0A24206D085F31188BFF36F8F22
:103790004FF0FF3070BD71430B4401229A6485F3F2
:1037A0001188BFF36F8F43680B445B689847002014
:1037B000F0E700BF95AD00008A9B000058AD000007
:1037C00070B50D460649411A044649110548402284
:1037D000FFF7B8FF2B4601462046BDE8704018476A
:1037E000380D0020D8960000002270B50121044653
:1037F0001046FFF73DFC0F4800F0B8FF0E4B984213
:1038000015D100F0C3FF26690C49304605F0FEF9DA
:1038100000280BDB0125B5642469084904F1200068
:1038200005F0F4F9002801DB6565002070BD6FF03C
:103830000400FBE7753800000000AD0B0C9A000097
:1038400070B501460C2309484B43C418D4E91056FF
:10385000483300221844226405F058FC2DB132464A
:103860002B460348BDE87040184770BD380D002056
:10387000D8960000012808B506D0042808D098B9C9
:103880000F4B9B6C5B0719D1BDE80840FFF7D8BF11
:103890000C490D4A0D4840F26E2305F0E2F940F262
:1038A0006E21094805F0D6F90649074A074840F253
:1038B000722305F0D6F940F27221F2E708BD00BF8D
:1038C000380D0020C0A1000058AD00008A9B000008
:1038D00008B54FF02003EFF3118183F31288BFF393
:1038E0006F8F124A136843F002001060DA0708D4A1
:1038F00081F31188BFF36F8F0120BDE8084000F00D
:103900006BBF4FF08043D3F80C24D3F80C34DB07A3
:10391000EED5074805F0FAFB81F31188BFF36F8FEE
:103920000020BDE80840FFF78BBF00BF900D0020CE
:10393000800D00201FB500220123CDE90223094A92
:10394000CDF800D06B46CDF804D005F020FC00285F
:1039500005DB4FF480420023684602F09FFE05B06D
:103960005DF804FBB591000010B54FF02003EFF3B4
:10397000118483F31288BFF36F8F074A136823F013
:103980000201DB07116002D4012000F097FF84F3ED
:103990001188BFF36F8F10BD900D00202DE9F0410D
:1039A0004549BFF35B8F0646012251E8003F41E8DD
:1039B00000200028F9D1BFF35B8FA3B93F494048ED
:1039C0004B60CB608A60FDF76FFC00280BDA3D4945
:1039D0003D4A3E484FF40C7305F043F94FF40C7127
:1039E000394805F037F976B3731E012B59D8012EEB
:1039F00007D14FF08043D3F81C3403F00303012BAD
:103A000021D005F051FD0546F8B9314B1B78E3B1E3
:103A10004FF080430222C3F808230746DFF8B48042
:103A20004FF08044D4F81824D4F81834D20316D5B3
:103A300003F00303012B01D0012E10D15DB387F3F6
:103A40001188BFF36F8FBDE8F0814FF02003EFF3D3
:103A5000118783F31288BFF36F8F0125DEE7ADB1C5
:103A60003846FFF7B7FBD4F81835002BDAD1D4F875
:103A70000421002AD6D0C4F80431D4F8043101233B
:103A8000C4F81835C8F88031A360CBE700212120A5
:103A900003F028FFE7E74FF080430222C3F8042336
:103AA000D1E70D49084A094840F2422305F0D9F808
:103AB00040F2422194E700BF340D0020240D002085
:103AC000580D002040A4000058AD00008A9B000063
:103AD000DE14002000E100E0C0A1000008B50748A6
:103AE00005F0AEFC38B10648FFF78AFD0448FDF743
:103AF00023F9002008BD6FF01200FBE7EC960000F0
:103B0000053B00000A2838B5074D044604D1AB68D0
:103B10000D215B6828469847AB6803485B68E1B2B3
:103B20009847204638BD00BFEC96000008B50368F2
:103B30005909024614D0012906D103F01F034FF69C
:103B4000FF71D940C80713D40B490C480C4A40F206
:103B5000453305F086F80A4840F2453105F07AF819
:103B60004FF0FF31D940C907EED54FF0A04000E03B
:103B70000448136008BD00BF15AE00008A9B00001A
:103B8000E2AD0000000300502DE9F04FDFF8949102
:103B9000DFF894A185B01546834600EB8108D8452F
:103BA00003D1002005B0BDE8F08FDBF80030D90468
:103BB000C3F3432203F07F0400F1AD807F2C4FEA72
:103BC000134319F8027008BF4FF0FF34222B00F2A4
:103BD000A580DFE803F012191F22252B22A3A3A33F
:103BE000A33B68A3A3A3A3A3A3A3A3A36B818487DD
:103BF000A3A3A38A9194979A9D00C5F80C45621CD3
:103C00005ED10BF1040BCAE7C5F81445631CF8D06C
:103C100000265FE0C5F80845F1E7C5F81045F5E76F
:103C2000661CC5F80845ECD0002604E0601CC5F809
:103C30000C45E6D0012603A80394FFF777FF039B0A
:103C4000012202FA03F3C0F80C3508E0C5F8084574
:103C5000002FDBD1631CD4D0002632460627DBF8C8
:103C60000030019303F40051002918BF002203A87B
:103C7000009218BF01260394FFF758FF0399019B98
:103C8000009A00EB8100C3F3C114D0F800173B0287
:103C900043EA8403134301EA0A010B4343EA460360
:103CA000C0F80037ADE7C5F80C45D1E7C5F8604569
:103CB000611CDBF80030A4D0C3F38033002BB9D0F3
:103CC00003A80394FFF732FF039B012606FA03F3D0
:103CD000C0F808353246C2E7C5F86445E8E7C5F8DC
:103CE0006845E5E7C5F86C45E2E7C5F82445621C80
:103CF00087D000220126B2E7C5F828457FE7C5F83E
:103D00003045F4E7C5F83445F1E7C5F83845EEE746
:103D1000C5F83C4573E76FF0150043E76FF0850089
:103D200040E700BF38AE0000F0F8FCFF2DE9F74394
:103D30000646002201210220FFF79AF90220FFF730
:103D400067F9776835693C684FF00008C4F800856A
:103D50002E60D7F80C9001AA4146484605F030FA8B
:103D6000002837DB019BD9F8002019791868FFF784
:103D70000BFF00282EDB6B7A3169012B03D0032B5C
:103D800026D14FF01008AB7A032B21D195F80BC048
:103D9000BCF1000F02D0BCF1010F19D12A7A12B187
:103DA000022A15D10E226B687068B3F5164F0068B1
:103DB0007BD02DD8B3F5165F7AD016D8B3F5966FB1
:103DC00078D00AD8B3F5967F77D0B3F5167F77D041
:103DD0006FF0850003B0BDE8F083B3F5166F72D0C5
:103DE000B3F5965FF4D15C4B3EE0B3F5E14F6DD097
:103DF00007D8B3F5615F6BD0B3F5964FE8D1574B59
:103E000032E047F6122E7345E2D14FF400032BE067
:103E1000B3F5613F5ED013D8B3F5963F5DD009D8B6
:103E20004DF6C02E73455AD0B3F5614FD0D14FF443
:103E30006B0319E0B3F5E13FCAD14FF0EB7313E028
:103E4000B3F5612F4ED009D8DFF814E173454CD09B
:103E5000B3F5E12FBCD14FF0E86305E0DFF804E1F2
:103E60007345B5D14FF08053C0F82435736848EAE4
:103E70000C081B6842EA0802C3F86C250B1DD5E943
:103E8000010183E803007B6899073DD505F118001F
:103E900001F088F8344B98422AD03448344A012142
:103EA00005F099F86FF0040094E74FF41D03DBE789
:103EB000304BD9E74FF49E23D6E74FF4A033D3E736
:103EC0004FF41C33D0E74FF41D23CDE72A4BCBE74B
:103ED0002A4BC9E74FF06C73C6E7294BC4E74FF490
:103EE0006503C1E74FF07063BEE74FF08063BBE747
:103EF000287E04F10C0204F5907105F0EAF92B7E9E
:103F00000120984000F0B2FB0823C4F800353B7A4A
:103F100053B9C4F81031D4F810316B69C4F8343592
:103F20000123C4F8383523607B689A075CBF4FF4DF
:103F30008073C4F804337B68DB0644BF4FF480030E
:103F4000C4F804332B69C4F8443500200123C4F8B5
:103F50004805A360E3603DE700B0130000A04E00F9
:103F600090D0030040420F000000AD0BD09800003D
:103F700040AE00000050270000C0750000F03A007D
:103F800000903A01F8B5044607690D4605F08CFA31
:103F9000B0B92E4B1B789BB16426606805F03EF9E2
:103FA00000BB012005F093F9013EF6D1002121204C
:103FB00003F098FCF0E786F31188BFF36F8FF5E705
:103FC0004FF02003EFF3118683F31288BFF36F8F56
:103FD0006068314605F022F990B986F31188BFF385
:103FE0006F8FEDE74FF02003EFF3118683F3128814
:103FF000BFF36F8F6068314605F010F90028DAD002
:104000003B691D70626838691368C3F84405012074
:10401000C3F848050020C3F82001D3F82051C3F8A5
:1040200058015268D3F85801D20608D56268126860
:104030000820C2F800054FF48002C3F804230122CF
:104040009A6081F31188BFF36F8FF8BDDE140020F2
:1040500070B40E49D1E90034D01AC31844F10004F9
:1040600022F07F46C1E90034A6F50013B3F5400FF6
:1040700009D2074B1B681A0A1B069C19054B42F113
:104080000005C3E9004570BC03F046BE5806002099
:104090009C0D0020600600200D4B1868010A0006E8
:1040A000BFF35F8F0B4BD3F80435181841F10001B3
:1040B000B3F5801F0AD2084BD3E90023904271EB7D
:1040C000030303D210F1807041F10001704700BF7B
:1040D0009C0D002000100140600600202DE9F743F0
:1040E0002F4CD4F8043399070BD5D4F8043143B1DD
:1040F0002C4A0023C4F80431D4F804311368013386
:104100001360D4F80433DA032AD5BFF35B8F264B50
:1041100053E8002F22F0010143E800100028F7D1F6
:10412000BFF35B8FD30702D4D4F84031C3B100256D
:10413000C4F84051D4F84031FFF7AEFF4FF02003F0
:10414000EFF3118283F31288BFF36F8F174BD3E91C
:104150000267B042B94106D282F31188BFF36F8F74
:1041600003B0BDE8F0834FF0FF384FF0FF39C3E9EB
:104170000289D3E900101D604FF48033C4F848333E
:10418000C4F84051D4F8403182F31188BFF36F8FE7
:104190000029E5D0009032463B4628468847DFE7B5
:1041A000001001409C0D0020940D002048060020C6
:1041B0002DE9F84F4B4DBFF35B8F06460F4655E890
:1041C000008F28F0010345E80032002AF7D1BFF341
:1041D0005B8F454C4FF48039C4F80893BFF35F8F71
:1041E000BFF36F8FFFF758FFB04271EB070308F082
:1041F000010840D23D4B301A67EB0101984271F142
:1042000000014CD23A4BD3E902239F4208BF9642A9
:104210003ED04FF0000CC4F84893C4F840C126F0DB
:104220007F40D4F84031DFF8CCA0834603216FF003
:10423000020E2BF07F43C4F84035C4F84493D4F801
:104240000425AEEB02035B4423F07F4353451FD9A3
:10425000D4F840315BB1D4F80425131A23F07F431E
:10426000B3F5000F14D9C4F840C1D4F8403101EBC4
:10427000020B0131DDE7204BBFF35B8F53E8001FDA
:1042800041F0010143E80012002AF7D1BFF35B8F30
:10429000174B1A4A1A60C3E9026700225A60B8F144
:1042A000000F1CD0BFF35B8F55E8003F43F00103C4
:1042B00045E80032002AF7D1BFF35B8F4FF480331B
:1042C000C4F804330C4BBFF35B8F1B68BFF35B8FE9
:1042D000DB0742BF0A4B4FF40032C3F80021BDE8B0
:1042E000F88F00BF980D00200010014001008000F1
:1042F00048060020FDFF7F00940D00205140000083
:1043000000E100E070B5194C194BC4F80833C4F84B
:104310004833184B00254FF0FF304FF0FF31C4F801
:104320000855C3E902014FF48033C4F80433124B3B
:1043300002264FF40032C4F804630121C3F880213F
:1043400011202A46FEF794FE1120FEF761FE01239C
:104350000A4AA3600021236009481360FFF728FF81
:104360003046FFF71BFB284670BD00BF0010014020
:1043700003000F004806002000E100E0980D002037
:10438000FFFF7F00431C10B50F4C05D08442A8BF2F
:104390000446012CB8BF0124FFF77EFE0B4AD2E988
:1043A0000031C01AB0F5000F074A0AD220449042EB
:1043B00028BF1046C018BDE8104041F10001FFF7CA
:1043C000F7BE1046F6E700BFFFFF7F00580600204B
:1043D00008B5FFF761FE024B1B68C01A08BD00BF9D
:1043E0005806002010B5084C012363601120FEF729
:1043F0001DFE064BC4F80833C4F84833044B4FF491
:104400000032C3F8802110BD0010014003000F00EE
:1044100000E100E008B5FDF7A5FC0448044A0121CD
:1044200004F0D9FD0020FEF72DFD00BF9898000094
:104430007DAE00004FF08053D3F83021082A06D11A
:10444000D3F83431052B02D8024AD05C70470020E3
:10445000704700BFA0AE0000024AD2F80034002B23
:10446000FBD0704700E0014010B54FF08053D3F807
:104470003021082A4ED14FF080420021C2F80C11A1
:10448000C2F81011C2F8381502F54042D3F80414EE
:10449000C2F82015D3F80814C2F82415D3F80C1468
:1044A000C2F82815D3F81014C2F82C15D3F8141438
:1044B000C2F83015D3F81814C2F83415D3F81C1408
:1044C000C2F84015D3F82014C2F84415D3F82414C8
:1044D000C2F84815D3F82814C2F84C15D3F82C1498
:1044E000C2F85015D3F83014C2F85415D3F8341468
:1044F000C2F86015D3F83814C2F86415D3F83C1428
:10450000C2F86815D3F84014C2F86C15D3F84434D7
:10451000C2F87035FFF78EFF18B13A4B3A4AC3F82C
:104520008C26FFF787FF18B1384BFB22C3F81825FC
:10453000FFF780FF70B14FF080414FF08053D1F80A
:10454000E42ED3F8583222F00F0203F00F03134386
:10455000C1F8E43EFFF76EFF20B12D4B4FF400721F
:10456000C3F840264FF08053D3F83031082B1AD1CE
:104570004FF08043D3F80024D20744BF6FF001020C
:10458000C3F800244FF08053D3F83431052B02D800
:10459000204AD35C3BB14FF01023D3F808224FF0F0
:1045A0008043C3F858254FF01023D3F80022002A87
:1045B00003DBD3F80432002B22DA174901234FF032
:1045C0001020C1F804351224FFF746FFC0F800425E
:1045D000FFF742FFC0F80442FFF73EFF0023C1F897
:1045E0000435FFF739FFBFF34F8F0C490C4BCA68F6
:1045F00002F4E0621343CB60BFF34F8F00BFFDE7CF
:1046000010BD00BF005000404881030000F0004092
:10461000009002409AAE000000E0014000ED00E092
:104620000400FA0530B50468CCB1BFF35B8FB4FA6F
:1046300084F3C3F11F03DBB201229A4024EA020291
:1046400050E8005FA54204D140E8002CBCF1000F07
:10465000F6D1BFF35B8FE6D102480B7030BD024844
:10466000FCE700BF0000AD0B0200AD0B014BC3F82F
:104670000405704700F00140F7B54FF08043044651
:1046800058B1012828D034493448354ADC2304F095
:10469000E8FA3348DC2104F0DDFA0222C3F80823EB
:1046A0000122DA60C3F80401D3F80431064601237D
:1046B0008DF8073042F210754FF08047ECB1012CB5
:1046C0002FD025492548274A4FF4747304F0C9FABE
:1046D00024484FF47471DEE70022C3F808035860E1
:1046E000C3F80021D3F800310DF10706DFE783B1ED
:1046F000012004F0ECFD013D0BD0D7F8183403F491
:104700008033002EF3D0D7F8182402F00302326071
:10471000BBB903B0F0BD83B1012004F0D8FD013D69
:104720000BD0D7F80C3403F48033002EF3D0D7F835
:104730000C2402F0010232701BB90B4B00225A719B
:10474000E7E79DF80700012803D104F0C0FD013D13
:10475000B4D1012CDDD1F0E7C0A100008A9B00009C
:10476000A6AE0000E3AE0000A00D0020044B1A79B5
:1047700022B9012218609A800248704702487047A7
:10478000A00D00200000AD0B0C00AD0B08B50E4BCA
:104790001A795AB90D490E480E4A4FF4987304F02D
:1047A00060FA0C484FF4987104F054FA1B682BB16E
:1047B0000020FEF74FFC08B9FEF72AFC4FF08043BB
:1047C0000022C3F8182508BDA00D002017AF000077
:1047D0008A9B0000A6AE000038B5334C23795BB944
:1047E0003249334A33484FF4BD7304F03AFA4FF478
:1047F000BD712F4804F02EFA58B101284AD02E4935
:104800002B4A2C484FF4DF7304F02BFA4FF4DF717E
:10481000EFE74FF08043D3F81814D3F81824C803F7
:1048200020D502F00303012B04D013B10020FFF7C1
:1048300023FF00234FF080420220C2F818350822DF
:104840004FF4827303F180430021196002F180422A
:104850001D6801251560226802B34FF08043C3F83C
:1048600004030CE0D3F81424D107E2D5D3F81C24B8
:104870009207DBD422681AB10222C3F8042338BDA0
:10488000D3F80421002AFBD00022C3F80421D3F876
:104890000431F4E700224FF48073D3E71A68002A4A
:1048A000FCD019601B68EAE7A00D002017AF0000DC
:1048B000A6AE00008A9B0000C0A1000008B5094B0D
:1048C0001B795BB908490948094A4FF4EC7304F0B5
:1048D000C8F907484FF4EC7104F0BCF9BDE8084092
:1048E000FFF7CABEA00D002017AF00008A9B000092
:1048F000A6AE000010B54FF08043D3F800216AB196
:104900000022C3F80021D3F800210122C3F80823B4
:10491000114B587910B95A711B6898474FF0804372
:10492000D3F8042172B10022C3F80421D3F8042182
:10493000D3F81824D3F81824920704D10122C3F81D
:1049400018259A6010BD0222C3F80823024BBDE867
:1049500010401B6801201847A00D0020034A43099E
:1049600000F01F00D35C1844C0B270474AB000008A
:10497000072808B50BD908490848094A40F2DE2340
:1049800004F06FF9064840F2DE2104F063F980007C
:1049900000F0FC0008BD00BF6AAF00008A9B000069
:1049A00035AF000008B502680146104604F09DFCD2
:1049B00058B91149114A124840F2453304F051F9EF
:1049C00040F245310D4804F045F902F01F03520949
:1049D0000B600BD0012A0CD00A49084A084840F263
:1049E0004E3304F03EF940F24E31EBE74FF0A04079
:1049F00008BD0548FCE700BF15AE0000E2AD0000B1
:104A00008A9B0000C0A1000000030050072808B5E1
:104A10000BD908490848094A4FF43D7304F021F9BD
:104A200006484FF43D7104F015F9800000F58070E0
:104A300008BD00BF6AAF00008A9B000035AF0000D0
:104A400070B50546FFF78AFF0C4C08300E4634F867
:104A50001030DA0508D5C3F3432304EBC30228461C
:104A600054F8333052689847A3682BB1E268314656
:104A70002846BDE87040184770BD00BF5C000020AC
:104A800008B5FFF76BFF034B083033F81000400BFD
:104A900008BD00BF5C00002008B5FFF75FFF034BB7
:104AA000083033F81000C0F3400008BD5C0000205F
:104AB00008B5FFF753FF044B083033F8100010F02F
:104AC0001C0018BF012008BD5C00002008B5FFF7DE
:104AD00045FF034B083033F81000C0F3401008BD09
:104AE0005C000020034611F0010010B5CCB20DD1DE
:104AF000A207C4F3400012D5094AD2F82005586035
:104B0000C2F82005003818BF012008E04FF0A0418E
:104B1000D1F820251A60C1F82025002AE8D010BD60
:104B20000003005010B5044604F0DFFB58B91049EB
:104B3000104A114840F2A33304F093F840F2A33135
:104B40000C4804F087F8204604F03DFC48B90B49B6
:104B5000084A09484FF4697304F083F84FF4697107
:104B6000EEE72046FFF78CFFBDE81040FFF700BFDF
:104B7000C6AF000074AF00008A9B000026B00000A2
:104B80002DE9F843002407460E4625464FF001085C
:104B9000A146B5420DD1124BD3F87C2132B100228F
:104BA000C3F87C21D3F87C3144F000442046BDE8B2
:104BB000F883E8B2FFF72AFFA0F58072920808FA9E
:104BC00002F2174209D000F1804303F5C04319688F
:104BD00019B1C3F800901B6814430135D9E700BF31
:104BE000006000402DE9FF410C46804620461146FA
:104BF0001E46FFF7B3FE054621B32046FFF74CFFE4
:104C000018B92046FFF762FF10BB2046FFF750FFA0
:104C100010B14B78012B1BD001238DF80F300023EE
:104C2000CDE900134A1C8B1C20460DF10F0104F046
:104C30006EFB274A05F1080132F8113043F00303F7
:104C400022F81130002E41D02046FFF725FF18B979
:104C5000204804B0BDE8F08196F800C0D8F80030D4
:104C60001B4F0CF5A272002143F8221005F1080237
:104C700037F8121021F02001C904C90C27F81210CE
:104C800075781DB3D8F80000B67800EB8C002D04C1
:104C9000D0F8103523F4991323F4F853C0F81035E5
:104CA000230203F47C5305F440353605D0F810E5B3
:104CB0002B4306F4801641EA4C31334341F0200186
:104CC00043EA0E0327F81210C0F810350248C0E777
:104CD0005C0000200400AD0B0000AD0B2DE9F0419D
:104CE0001A4E96F8804005466CBB6022214606F1BC
:104CF000100004F0ABFC2D68376FA046A74213D11B
:104D00000023C5F87C3145F30730D5F87C31FEF738
:104D10007FF94FF00043C5F804330D48012386F8AE
:104D20008030B367BDE8F081E0B2FFF76FFEA0F519
:104D300080739B081F2B08BF45F8008004F1010415
:104D400008BF2B58DAE70348ECE700BF5C000020FF
:104D50000000AD0B0C00AD0B034B93F88000003846
:104D600018BF0120704700BF5C0000200148FFF71A
:104D700059BC00BFD000002038B5054608460C4697
:104D800004F0B3FA58B91449144A154840F2933361
:104D900003F067FF40F29331104803F05BFF0846D1
:104DA00004F011FB48B90F490C4A0D484FF46573E4
:104DB00003F057FF4FF46571EEE72046FFF760FE02
:104DC000296800B201EB8003D3F8102542F00302FA
:104DD000C3F8102538BD00BFC6AF000074AF000097
:104DE0008A9B000026B000002DE9F04F694BDFF8E8
:104DF000A881D3F80403D8F87010C0B289B040F08D
:104E00000040FFF7BDFE051E2FDAC24600235AF808
:104E10007C1F06A8CDE90633FFF764FE5F4B0193C4
:104E20000DF118094FF0000B019A12F8013B0192A5
:104E3000DA0803F007031AF8022022FA03F3DA076C
:104E40001CD409F10409BBF1000F14D0D8F870107C
:104E50004FF00040FFF794FED8F87C1006A8FFF74B
:104E600041FE0028DAD125F000450124002D79D13A
:104E700009B0BDE8F08F4FF0010BD5E7484B5B441C
:104E80000293D9F800100029DBD0029B91FAA1F11E
:104E90001C78B1FA81F141EA44142046FFF75EFD27
:104EA0000830059438F81070C808BB0819F80020BD
:104EB000039301F00701012303FA01F122EA010241
:104EC00009F8002005A8FFF76DFD059A039B02F580
:104ED000E072C7F3820650F822205B073746C2F320
:104EE000014224D539462046D6B2FFF7A9FD05A8D0
:104EF0000594FFF757FD059B03F5E07350F8233049
:104F0000C3F301439E4207D10021204604F04CFA2E
:104F10003146204604F048FA05A80594FFF742FD03
:104F2000059B012202FA03F3C0F82035A9E7022A03
:104F30000CD10321204604F037FA06F00503012BBB
:104F4000EAD139462046FFF77BFDE5E702212046FE
:104F5000039204F029FA032EF3D0039A032ADBD13B
:104F6000022EEDE795FAA5F3B3FA83F304FA03F200
:104F70009B0003F1804303F5C04325EA0205D3F803
:104F80001005D3F81015C0F30520C1F30141FFF758
:104F900057FD6BE7006000405C0000205AB0000045
:104FA0005AB0000001460148FFF73CBBE00000207A
:104FB000054B93F82E00431E012B03D9043818BF6C
:104FC0000120704700207047A80D002010B5144A3A
:104FD00014490020C2F8000591F82F40D2F804339C
:104FE00081F82E400C6823F033030CB143F0230307
:104FF000C2F81C01D2F81C41C2F81801D2F81821DD
:1050000091F83320D00791F8342048BF43F0800353
:10501000D207034A48BF43F04003C2F8003310BD33
:1050200000700040A80D002070B50D4A002392F8D2
:10503000301001251E4618B90BB182F8301070BD32
:1050400090FAA0F3B3FA83F305FA03F40C3302EBFE
:10505000430320EA0400DE8021EA04010123EAE799
:10506000A80D002038B548B91449154A15487D23C4
:1050700003F0F7FD7D21124803F0ECFDFF2807D96E
:1050800011490F4A0F487E2303F0EBFD7E21F2E722
:105090000E4B082493F8305001220023104203D015
:1050A000154208D00133DBB2013C4FEA4202F5D190
:1050B00007480B7038BD0748FCE700BF99B00000F7
:1050C0005CB000008A9B0000ADB00000A80D00207D
:1050D0000000AD0B0400AD0B73B50023044601AA1C
:1050E0000E464FF48071019304F080F94FF48A71F9
:1050F000204604F07BF94FF482710546204604F007
:1051000075F920B11EB115B1144BD3F8343601AA8C
:105110004FF48471204604F069F94FF486712046FB
:1051200004F064F94FF48871204604F05FF914F438
:105130007F5F10D04FF48E75294601AA204604F0F7
:1051400055F9291F083589B22046ADB204F04EF951
:10515000B5F5AE7FF0D1019802B070BD007000408F
:105160002DE9F04F93B09A460DF1080C0AAF1C9D43
:105170003D4B3E46E046002403EB041E0134DEF8BE
:10518000189548F8049B082CDEF81CE546F804EB5B
:10519000F2D1D3F8F065D3F8404601944FF0010EF8
:1051A0000024D3F84496D3F84886C3F8FC4FC3F8DC
:1051B000FCEF2D4B5CF804BB03EB041E0134CEF86E
:1051C00018B557F804BBCEF81CB5082CF2D1019CD9
:1051D000C3F84046F6B2254CC3F84496C3F8488657
:1051E000C3F8F065002684F8336084F83460A66064
:1051F0002661256084F83100A683C3F8F015C3F852
:10520000F4256DB32322C3F80023184D164E002455
:10521000012706EB041E07FA04F3DEF81815220135
:10522000034002F1804214BFD046984602F5E042A6
:1052300021F0807104F101041ABF95F81EC0EB7FC4
:105240009C4641EA0861082CCEF8181505F10205C4
:10525000C2F81435C2F810C5DBD113B0BDE8F08F29
:10526000C3F80053D1E700BF00700040A80D002034
:1052700010B5C3794BB922492248234A942303F03D
:10528000F0FC2148942103F0E5FC8378C278417A50
:105290001B02120302F4805203F4E063134302780A
:1052A00002F0030213430279120402F4E0221343D2
:1052B0004278120102F0300213434279120502F4DF
:1052C000801213438279120602F0807213430A019E
:1052D00002F1804202F5E042C2F818350B4AC47967
:1052E00001F10C0302EB43039C71007AD871012396
:1052F00003FA01F192F830300B4382F8303010BDE0
:10530000CCB000008A9B00005CB00000A80D00201B
:1053100070B51F4D95F82E40002C37D10126FF2087
:1053200085F82E60FFF780FE1A4B1B49C3F8004139
:10533000D3F80021C3F80441D3F80421C3F8104185
:10534000D3F81021C3F81441D3F814311C239A0860
:1053500006FA02F212F0330F1FBF03F1804202F58A
:10536000E242146012681A1F920806FA02F212F062
:10537000330F1CBF5C505A5808335C2BE7D1072011
:10538000FDF746FE002305482B6070BD0448FCE78E
:10539000A80D002000700040FC7000400000AD0B24
:1053A0000C00AD0B08B5134B93F82E3002465BB9D9
:1053B0001149124A12484FF4A37303F052FC4FF400
:1053C000A3710E4803F046FC48B90E490B4A0C483D
:1053D00040F2471303F045FC40F24711F1E7FFF7B5
:1053E000E7FD20B91046FFF743FF074808BD07480F
:1053F000FCE700BFA80D0020F9B000005CB0000081
:105400008A9B000049B100000000AD0B0B00AD0B02
:1054100008B5094B93F82E205AB908490848094A9B
:1054200040F2551303F01DFC064840F2551103F0FD
:1054300011FC93F8300008BDA80D0020F9B0000061
:105440008A9B00005CB000002DE9FF47374E99466B
:1054500096F82E3080468A4615465BB93449354A5F
:10546000354840F2971303F0FCFB40F297113148A6
:1054700003F0F0FB4AB931492E4A2F484FF4CC7360
:1054800003F0EFFB4FF4CC71F1E7FFF791FD074616
:10549000002847D10DF10F014046FFF7E3FD284BEF
:1054A000984204463AD16B8833B19DF80F30012BF6
:1054B0003AD8B9F1000F37D02A786B782AB123B9DE
:1054C0009DF80F1001292FD80127CDF800905146E3
:1054D0004046FFF745FE6B881A4A8BB1A3F1500195
:1054E000B1F5F66F0AD318491348184A40F233430E
:1054F00003F0B7FB154840F23341B9E743F480535A
:10550000C2F8F8359DF80F3086F832302B7986F8DE
:105510003530042386F8367086F82E30204604B0E5
:10552000BDE8F0870A4CF9E70A4CF7E7A80D002020
:10553000F9B000005CB000008A9B000053B100008D
:105540000000AD0B0070004090B100005CB10000A5
:105550000B00AD0B0300AD0B38B5224B93F82E209A
:105560005AB921492148224A4FF4EA7303F079FBE2
:105570001F484FF4EA7103F06DFB1C695CBB00F03F
:105580006044B4F1005F28D193F83240B1FBF4F5E8
:1055900004FB15151DBB0DB2002D20DD052A05D815
:1055A000032A0AD8022A0DD0124838BD062AFBD198
:1055B000114AC2F82C06C2F830169A6842B1C3E903
:1055C000040103E08C420AD1C3E902040B48ECE772
:1055D000C3E90201FAE70A48E7E70A48E5E70A48AB
:1055E000E3E700BFA80D0020F9B000008A9B00008F
:1055F0005CB000000500AD0B007000400000AD0B7A
:105600000C00AD0B0A00AD0B0600AD0B2DE9F3410C
:105610005C4C94F82E205AB95B495C4A5C4840F2D5
:105620000D2303F01EFB40F20D21584803F012FB3E
:10563000012A09D15749554A554840F20E2303F033
:1056400010FB40F20E21F0E7A368002B00F09780DA
:10565000022A05D0042A30D04F4802B0BDE8F081BC
:105660004E4D0126C5F800652168E26849B1032165
:1056700084F82E10C5F82C36C5F830262E60484820
:10568000EBE7C5F82C36C5F830262E6003F0C5FED2
:1056900008346E6021460220FFF71EFD0028F9D075
:1056A0003E4B0022C3F80821D3F80811C3F80C219F
:1056B000D3F80C11C3F80025E1E7384D4FF001088D
:1056C000C5F80085276857B1052284F82E20E268C6
:1056D000C5F82C36C5F83026C5F80080CFE7A18B79
:1056E00094F83220019203EB41030093C5F82C3665
:1056F000C5F83026C5F8008003F08FFE94F83630E8
:105700005BBB264D01236B6069460220FFF7E4FC7A
:105710000028F9D00022C5F80821D5F80831C5F8CD
:105720000C21D5F80C31A18B94F832300B44E16890
:105730009BB28B42A38321BF1A4BA283D3E9020100
:10574000C3E90001154B28BF22614FF000022CBFB6
:1057500013481548C3F800257FE7D5F8F465F6B27D
:1057600008FA06F6013EBE42CBD9C5F804800021F6
:105770000420FFF7B1FC0028F9D00137F3E70B480C
:105780006BE700BFA80D0020F9B000005CB000007E
:105790008A9B0000ABB100000500AD0B007000401B
:1057A0000000AD0BB00D00200B00AD0B0200AD0BE7
:1057B000F8B5314E96F82E10024659B92F493048A7
:1057C000304A40F2BA2303F04CFA2E4840F2BA2194
:1057D00003F040FAFFF7ECFB00284AD12A4C86F888
:1057E0002F10072386F82E3001237260C4F800358D
:1057F000D4F80453C4F80003E3603AB125F0C005BF
:1058000045F03305C4F800532048F8BD00211020AE
:10581000FFF762FC0028F9D00023C4F80431D4F863
:1058200004311B4BC4F82C3601270223C4F8303650
:10583000276003F0F2FDA76000212020FFF74CFC59
:105840000028F9D0104B0022C3F80421D3F804112A
:10585000C3F8002596F82F1086F82E10C3F81C21E7
:10586000D3F81C11C3F81821D3F81821C3F800533A
:10587000CAE70848C9E700BFA80D0020F9B000003A
:105880008A9B00005CB00000007000400000AD0B7F
:10589000C00D00200B00AD0B7FB56249614E332077
:1058A000FFF71AFC10F0100F05460BD05E4B1022CC
:1058B000C3F80823B218C3F82C260222C3F83026F6
:1058C00001221A60594CAA0694F82E300ED5072BE7
:1058D000554A05D0D2F834369BB2E36000232361E9
:1058E000D2F80433DB0601D5FFF770FBA80718D503
:1058F00094F82E30A16802910022E1688DF804200E
:10590000062BADF80C1018D0072B35D0032B08D17F
:10591000454BC3F80025022384F82E30236801A8E4
:105920009847E9074FD594F82E30033B042B4AD80B
:10593000DFE803F05A4929415E0094F8353023B17D
:10594000236913B1384B01221A60236801A89847D4
:10595000374B93E8030086E8030000232361A36824
:10596000002BDED1304AC2F80035042384F82E30F3
:1059700005238DF80430D1E7FFF728FB02238DF8CB
:1059800004306368CBE704238DF8043001A8236852
:105990009847254BD3F8F825D20444BF01225A601A
:1059A0002269062384F82E302AB11F4B6169C3F89F
:1059B0002C26C3F8301623692BB903238DF8043045
:1059C00001A82368984794F82E30072B0AD0164B6D
:1059D000D3F80403002100F47F50FFF77DFB01267C
:1059E00085094DB904B070BD0F4B01225A60EAE73A
:1059F0000D4B01229A60E6E795FAA5F3B3FA83F31B
:105A000006FA03F225EA02055A08DB4303F0010314
:105A10008DF809308DF8046023688DF8082001A8FE
:105A20009847DEE7B00D002000700040A80D002070
:105A3000B80D002008B5124BA8220021184603F02B
:105A400005FE032202610F4942610F4A8161C26172
:105A50004FF480620262002282624262C262016688
:105A60000A49416610218166094902670346C266F8
:105A7000426711F8010D98540132102AF9D108BD7E
:105A8000E00D0020D4B10000DE100020CE10002078
:105A9000EDB100002DE9F84FDFF87C80182606FBF9
:105AA000008E00FB06664644DEF82440DEF828C07F
:105AB0007368A44507468946154603EB040022D8BF
:105AC000DEF820B0ABEB040A0AF1FF339A4203D8A8
:105AD00003F0AEFD2C440FE063449A4219D85246BD
