:10000000C01A0020052C000067870000F12B0000BB
:10001000F12B0000F12B0000F12B0000000000008C
:10002000000000000000000000000000C52D0000DE
:10003000F12B000000000000612D0000F12B0000FA
:10004000B12F0000B12F0000B12F0000B12F000030
:10005000B12F0000B12F0000B12F0000B12F000020
:10006000B12F0000B12F0000B12F0000B12F000010
:10007000B12F0000B12F0000B12F0000B12F000000
:10008000B12F0000B12F0000B12F0000B12F0000F0
:10009000B12F0000B12F0000B12F0000B12F0000E0
:1000A000B12F0000B12F0000B12F0000B12F0000D0
:1000B000B12F0000B12F0000B12F0000B12F0000C0
:1000C000B12F0000B12F0000B12F0000B12F0000B0
:0C00D000B12F0000B12F0000B12F000084
:1000DC00034613F8012B002AFBD1181A013870477C
:1000EC002DE9F04383B0037802AF0446052B44D8C6
:1000FC00DFE803F04743031D1772384A38480321E1
:10010C0008F0BEFA05F0EEF8364B984235D0364979
:10011C00364A3748942308F0F9F89421334808F00C
:10012C00EEF8344A2E48032108F0AAFA25E0324AA8
:10013C002B48032108F0A4FA304A138801339BB2F0
:10014C00032B138019D82E4C23885A1C22802D4A3D
:10015C00062000FB0320032105F06AF8214B98428E
:10016C0007D02149214A2248A22308F0CFF8A22126
:10017C00D4E7238803F0010323800437BD46BDE890
:10018C00F083214A1648032108F07AFA6D4688B0AC
:10019C00636802AA1D49C2E90513032342F8103F04
:1001AC000F48DFF86C80DFF8389000234FF4C6510D
:1001BC0001F016FE2689AD460025ABB2B342DCD267
:1001CC00636833F915300321009342462B464846A9
:1001DC0008F069FA0135F0E70E4AA3E78C900000AD
:1001EC00848E00000000AD0BBF900000A7900000B3
:1001FC00D6900000F390000006910000C00800208B
:10020C00AC000020C20800201B9100002D910000C2
:10021C004991000061910000F0B5062185B00846B7
:10022C0000AF002202F0F4FD00220621072002F0AC
:10023C00EFFD08F0B6F94A4A4A48032108F020FAC3
:10024C0001F068FC04460028FAD1072004F0CCFE2B
:10025C00454B9842054609D04449454A4548D12367
:10026C0008F054F8D121424808F049F8424804F00B
:10027C0005FFA842064607D03C493D4A3D48D423D9
:10028C0008F044F8D421EEE74FF0FA6301253B6007
:10029C00BD8004F029FF2946384B3A4604F040FF54
:1002AC00B042054607D03149314A3248DF2308F0C5
:1002BC002DF8DF21D7E73248032104F0B9FFA8421B
:1002CC00064607D029492A4A2A48E22308F01EF894
:1002DC00E221C8E72B4BBB60072107F108003C73F8
:1002EC0004F092FBB042054607D02049204A214831
:1002FC00E62308F00BF8E621B5E707F1080004F057
:10030C00C1FB214A214B6E4688B0002818BF13460A
:10031C006A461F49C2E905134FF4007393831D4BC2
:10032C0042F8103F0F4823464FF4E65101F058FDB8
:10033C00194AB5461F2107F1080000F06FF80F4865
:10034C0005F0A2F8A84207D00849094A0948EF234A
:10035C0007F0DCFFEF2186E701F0DCFBFCE700BFD8
:10036C0087910000848E00000000AD0BBF90000050
:10037C00A7900000D6900000E9910000ED0000006D
:10038C00C2080020006000407B91000077910000C3
:10039C00D7910000030000010C71004073B50D46AD
:1003AC000DF10301044604F077FB174B9842064607
:1003BC0009D01649164A17482D2307F0A7FF2D21FF
:1003CC00134807F09CFF9DF803308DF8043003238D
:1003DC008DF8053000238DF806300F4A01AB294605
:1003EC00204604F095FAB04207D00849084A09485B
:1003FC003E2307F08BFF3E21E2E72946204604F01E
:10040C0051FB02B070BD00BF0000AD0BBF900000EF
:10041C0000920000D690000068920000F7B50546E7
:10042C000E461446FFF7BAFF0DF1070008F0ACFAC0
:10043C000F4B984209D00F490F48104A4D2307F033
:10044C0065FF0E484D2107F05AFF314628469DF8AE
:10045C00077008F01AFB21460246384608F08AFA63
:10046C009DF807300120984003F0DAFF03B0F0BD8F
:10047C000000AD0BBF900000D69000000092000071
:10048C002DE9F04F91B08407009302F0040302931E
:10049C00C2F3C20303F10103DDF868800392054641
:1004AC000E46059340F0F581041D30B1072909D89B
:1004BC006FF01B0011B0BDE8F08F01F00706341D82
:1004CC00C6F10806009B4FF00009013B4FF0040BEE
:1004DC000193CDF810904F464B464FF0FF32DA4661
:1004EC000DB1009921600598002800F3D780984839
:1004FC000099814203D397488142C0F0CF80039981
:10050C00A4EB050E89074FEA9E0040F1E2804FF004
:10051C00000CCCE07A285AD84B280CD8472856D84F
:10052C0029282AD8252851D051D8202877D02338EB
:10053C004342434173E04C382E2848D8DFE800F0A2
:10054C006F47474747474747474747474947474705
:10055C004747474747594749495959596F496C4784
:10056C006F471849184747807D49474749477D00E1
:10057C00002000234FF0040B39E02A38C0B20121CF
:10058C0001FA00F010EA0E0F49D110F0625C30D184
:10059C0010EA010343D06046013C5C44B4FBFBF41D
:1005AC000BFB04F4002D60D0AAEB050CA4446645AB
:1005BC00FFF47EAF00286AD1BAF1040F45D158F888
:1005CC00040B206004344FF0040A28E0013A0023A5
:1005DC0025E0019B13F8013C6C2B33D1019B13F8E4
:1005EC00023C00206C2B0346C4D14FF0080BDA46BA
:1005FC00D2E708F1070828F007080734F8E802AB3F
:10060C0024F0070435B106982044B0423FF650AFB1
:10061C00C4E900AB083400234FF0080BDA4601990B
:10062C0011F8010F0191002800F0BB80002B7FF422
:10063C0071AF2528F3D1013201234FF0040BEDE704
:10064C00184696E700200346A6E7BAF1080F40F0DB
:10065C009A8008F1070828F00708F8E80201C4E9B5
:10066C00000108344FF0080AD9E780B9BAF1040F39
:10067C0002D108F10408A5E7BAF1080F40F0838015
:10068C0008F1070828F0070808F10808E9E70599B8
:10069C000139059158F8041B009121E7039988074B
:1006AC004AD5A4EB050E4FEA9E004FF0010CBEF5A7
:1006BC00007F1ED32849294A294840F27B2307F0A2
:1006CC0025FE284807F022FE40F27B21234807F044
:1006DC0016FE0F2F0FD8002D48D007F140010DEB5F
:1006EC00010C0CF8200C0CF8102C04980130049020
:1006FC0021E00F2F0CD91849184A19484FF42073D0
:10070C0007F004FE184807F001FE4FF42071DDE7F6
:10071C00CDB107F140010DEB010EC0B20EF8200C6B
:10072C000EF8102CBCF1000FDFD060F07F000EF83B
:10073C00200C09F101090137C5F1080104340691B7
:10074C004FF6DA7E6BE7BCF1000F0FD00136F2E703
:10075C00E48C0000D0AD00000C9700006B92000000
:10076C00D690000099920000BA92000002980236CE
:10077C000028E0D10098CDE90632FFF7A9FCDDE9AD
:10078C0006320644D7E7444A4449454840F2C5235B
:10079C0007F0BCFD5146434807F0B8FD40F2C521B7
:1007AC0094E7631BB3F5806F0CD33C493A4A3C4841
:1007BC0040F2D12307F0AAFD3B4807F0A7FD40F219
:1007CC00D12183E71DB9A6F10804E01872E6029A5C
:1007DC0028609B082B709DF81030C2B1EB7085F827
:1007EC000290B9F1000F05D008A80022C5F1010C48
:1007FC0097420ED1C5F101030DF120084FF0000A0C
:10080C0001930DF1300B574512D1601B52E66B7002
:10081C00E5E710F8013B190608D504EB0C0E7645FC
:10082C0003F07F03FFF444AE04F8013B0132DFE731
:10083C00B9F1000F03D098F90020002A17DB029BB6
:10084C00D3B11AF80B2004F8012B0022019B981845
:10085C0020448642FFF42CAE98F8000004F8010BFB
:10086C0000990392204608F00EFA039A14440AF1F8
:10087C00010A08F10108C6E798F8002055F8223063
:10088C000093029B45F822300098FFF721FC421C94
:10089C00DCE76FF00D000DE66B9200000C9700008A
:1008AC00D6900000D4920000E99200002DE9F04FA0
:1008BC0095B000AF8A467A62BB61044658B9A84924
:1008CC00A84AA9484FF4657307F020FD4FF46571F1
:1008DC00A44807F014FDBB6F90F802B0C3F3C0033B
:1008EC003B6141B9457800780BEB800020445545BD
:1008FC0017D8A0EB040AE3787B61BBF1000F02D0A0
:10090C00BB6FD80716D47B6953BB7B6A1BB1BA6922
:10091C00514620469847554628465437BD46BDE8B3
:10092C00F08F461C3046FFF7D3FB013030440AF100
:10093C00010ADCE723783B629B00FB603B6A626840
:10094C00FA6104EB83097B6A002B40F0FF8055466B
:10095C00C84609EB0B0A0026C24551D1D94413E015
:10096C00BB6F9907D1D523783B6299469B00FB60FE
:10097C006368FB617B6A04EB8909002B7AD15546CD
:10098C00BBF1000F4FD15E46BB6F13F0050F7B69B7
:10099C0009EB430ABB6F03F002030CBF4FF0020BD1
:1009AC004FF0010B7B62D145B6D019F8021B19F838
:1009BC00013C54F823806D4B984502D36C4B984501
:1009CC0038D33B69002B42D0F86907F0DDFB0028D7
:1009DC003DD0E8468AB06A46664B5361FB69C2E972
:1009EC0006314FF400731384634B42F8103F634895
:1009FC0000234FF4125101F0F3F9023DC546D2E742
:100A0C0018F8013B54F82300FFF762FBFB6F013031
:100A1C003BB1D7F880309E423EBFFB6F23F81600E7
:100A2C000136054498E7BB6F13F004061CBF7E6AC1
:100A3C00D944A9E73B6923B1F86907F0A5FB002865
:100A4C00C7D1BB6FDA0705D4A5EB0B05ABE77B6A07
:100A5C00002BA8D04046FFF73BFBFB6F43B1D7F808
:100A6C0080309E423FBFFA6F431C22F8163001368D
:100A7C00054498E7BBF1000F6ED0BB6F13F0040672
:100A8C007ED0D846002607F140005A46494608F069
:100A9C00FAF87B695B007B607B69D94409EB430303
:100AAC00BB60BB6F03F002033B60BB68994569D127
:100ABC00B96F6378B86F890706EB030254BF4FEA2E
:100ACC0058010021C507D2B200F1E08010F0040FEC
:100ADC0014BF40460020FB616270A070E170BA69DF
:100AEC00F9687B6A20469847051EFFF615AF3B6AEE
:100AFC002370FB6963707B69E3704146BA697B6A5A
:100B0C0084F802B007F140009847B0F10008C0F239
:100B1C00EA80FB68BA69AAEB0B01C91A7B684846E4
:100B2C00C91A7B6A98470028C0F2DF80A84408EBFA
:100B3C0000054FF0000B07F1300AB345C0F0A88058
:100B4C000021BA697B6A08469847E5E65E464FF095
:100B5C00000807F1300098E75E46D84699E700BFD9
:100B6C00009300006B920000D6900000E48C000013
:100B7C00D0AD00001B930000040000018C8E00001F
:100B8C00B04686E719F8021B594B19F8015C54F86A
:100B9C002500984202D3574B984216D33B692BB190
:100BAC00F86907F0F1FA00287FF47FAF3B68002B5F
:100BBC004AD00F2E3ED95049504A514840F24A4330
:100BCC0007F0A4FB40F24A4182E63B692BB1F8697D
:100BDC0007F0DAFA00287FF468AFBB6FDB070BD5A0
:100BEC000F2E27D94449454A45484FF4886307F0EE
:100BFC008DFB4FF488616BE6BB6F58077FF555AFE3
:100C0C00B8F10F0F09D93F493C4A3D4840F24343E4
:100C1C0007F07CFB40F243415AE608F1280307F148
:100C2C00280208F1010103EB020808F8105C5FFAD6
:100C3C0081F83AE706F1280307F12802711C9E1887
:100C4C0006F8205CCEB230E7B8F10F0F09D92D4968
:100C5C002A4A2B4840F24D4307F058FB40F24D41D5
:100C6C0036E608F1280307F1280208F1010003EB2E
:100C7C00020C07F1500353FA80F008F102080CF84B
:100C8C00101C5FFA88F800F8105C0EE7002022E7D1
:100C9C001BF80A3087F82F3054F82390FB6FFBB108
:100CAC0033F81B80BA697B6A012107F12F00984742
:100CBC0000281ADB0544B8F1000F06D14846FFF7AF
:100CCC0007FA00F101081FFA88F8BA697B6A4146F5
:100CDC0048469847002808DB05440BF1010B2CE72C
:100CEC00D7F87C80DEE7454616E6054614E600BFDD
:100CFC00E48C0000D0AD0000BE9300006B920000AD
:100D0C00D6900000DD930000014B1860704700BFC7
:100D1C000000002080B505460E461746984606F0A2
:100D2C0067FB034607F0CEFFDFF81890044649F83E
:100D3C000030424630463946A84754F8090001F0C5
:100D4C00DBFF00BF08000000B2F5802F2DE9F04159
:100D5C000ED33C493C4A3D4840F2EB1307F0D6FA1F
:100D6C003B4807F0D3FA40F2EB11374807F0C7FACB
:100D7C00042A0CD83749344A34484FF4F97307F035
:100D8C00C5FA354807F0C2FA4FF4F971EDE7043AA9
:100D9C00CD1D8E1825F0070526F00706761B172E9D
:100DAC004FEAD6070CD82D49274A284840F2FB13A6
:100DBC0007F0ACFA284807F0A9FA40F2FB11D4E787
:100DCC00B7FA87F4C4F12002C4F12404A400073458
:100DDC00E408631C4FF00008BB420560AF60C5F827
:100DEC000C800CD91E49184A18484FF4037307F0AD
:100DFC008DFA194807F08AFA4FF40371B5E74146AA
:100E0C00920005F1100007F04CFF630043F0010362
:100E1C006B8005EBC4023B1B5900A5F80080518088
:100E2C00AA1925F83440A2F80280AB5305EBC7038E
:100E3C0021465A8842F001025A802846BDE8F0410A
:100E4C0007F0D0B9DA9400000E940000D6900000A0
:100E5C00F0940000079500002895000041950000D3
:100E6C006A9500002DE9F84F04460846A38B190734
:100E7C00154612D4022803F0070165D1204607F06D
:100E8C00D8F988B10138042800F23781DFE810F076
:100E9C005C0035018200D400040101280CBF43F032
:100EAC00100143F02001A1831434204604F052FFBA
:100EBC00002840F09F819A499A4A9B4840F231138E
:100ECC0007F024FA2146B1E003F00702501F012875
:100EDC001ED80020062A2768C4E9000014D13A461F
:100EEC0003E0E08B0130E0831268002AF9D123F093
:100EFC00070343F00202A283204607F09AF990B34D
:100F0C0042F02002A2832EE023F007039AB2F2E70C
:100F1C00042A33D123F007039AB2A283204607F0A8
:100F2C0088F910B142F02002A283A38B03F00709C9
:100F3C00894540F0EC80A18BCA0640F1528121F02A
:100F4C001003A38301F00701D4F81880A38BB8F128
:100F5C00000FB9DA0022276823F00703C4E9002246
:100F6C0043F00103A383A38B03F00709894540F0E9
:100F7C00CF80002FDFD00026B24644E06B496C4A8C
:100F8C00694840F21B1307F0C1F940F21B11684885
:100F9C0007F0B5F949B16749654A63484FF4AB733B
:100FAC0007F0B4F94FF4AB71F1E723684BB9624920
:100FBC005F4A5D4840F2571307F0A8F940F2571109
:100FCC00E5E723691E684EB95C49594A56484FF407
:100FDC00AD7307F09BF94FF4AD71D8E7A38B23F0F9
:100FEC00070343F006039BB2A3830F4688464FF0DA
:100FFC000609A268002A40F08D80002F40F08D80F9
:10100C00002E98D0BA4643F0080304F1140BA383C6
:10101C00584604F09FFE002840F09A804049414A0F
:10102C00414840F2311307F071F95946444807F032
:10103C006DF940F23111AFE0022909D041493C4A27
:10104C00394840F25D1307F061F940F25D119EE7FB
:10105C00E78B4FB13C49364A33484FF4AF7307F036
:10106C0055F94FF4AF7192E723695E684EB9334975
:10107C002F4A2D4840F2611307F048F940F26111F4
:10108C0085E7A38B23F0070343F004039BB2A383F0
:10109C00B8464FF00409ACE7012909D02B49244A82
:1010AC0021484FF4B27307F031F94FF4B2716EE787
:1010BC0023684BB920491E4A1B4840F2651307F0C0
:1010CC0025F940F2651162E723699E684EB91B4908
:1010DC00174A15484FF4B47307F018F94FF4B4716C
:1010EC0055E7A38B23F0070343F005039BB20027BE
:1010FC00A383B8464FF005097BE70C490C4A0A4814
:10110C0040F26B1307F002F940F26B113FE7002736
:10111C0000266EE74FF0010A75E7924673E700BFB1
:10112C006596000038960000D69000000C970000E1
:10113C0095950000B7950000C3950000E69500005A
:10114C007C960000FD95000013960000229600008E
:10115C0085F31188BFF36F8FBAF1000F1ED1002FEA
:10116C002FD116B126492046B0474FF02003EFF39C
:10117C00118583F31288BFF36F8F584604F0DCFDA2
:10118C0038BB204A20492148882307F0BFF859462C
:10119C001F4807F0BBF888211A48F9E6A168002916
:1011AC00DDD00D680029DAD0D1F804A043464A46B8
:1011BC002046D0471DB12B6829461D46F2E72B4629
:1011CC00FAE7394643464A4620463F6807F05DF841
:1011DC00C5E7584604F0CEFDA38B23F00803A38388
:1011EC00A9E68B067FF560AE21F02003A38301F006
:1011FC00070143E685F31188BFF36F8FBDE8F88FC5
:10120C00211200003896000091960000D690000044
:10121C00A6960000F8B504460D4600F114064FF0F2
:10122C002003EFF3118783F31288BFF36F8F3046DF
:10123C0004F082FD68B90C4A0C490D48882307F06C
:10124C0065F80C48314607F061F80748882107F02B
:10125C0056F8304604F08EFDA5613A462046012131
:10126C00BDE8F840FFF7FEBD3896000091960000EF
:10127C00D6900000A69600002DE9F04704460F46D4
:10128C0006F0F3FF051E69DB04F114094FF020038F
:10129C00EFF3118A83F31288BFF36F8F484604F083
:1012AC004BFD804660B9394A39493A48882307F0E2
:1012BC002DF84946384807F029F88821334842E090
:1012CC00484604F057FDE38BA68B4FF6FF72934212
:1012DC0006F0070645D0022E15D10133E3833546BF
:1012EC00484604F037FD002841D1284A2B492948AB
:1012FC0040F2311307F00AF84946294807F006F87E
:10130C0040F23111DAE7062E13D8DFE806F0092D8A
:10131C001212090409006FF085054FF00008DFE791
:10132C0000233B60636883B9C4E9007786B1354616
:10133C00F3E71C4917481C4A4FF4E47306F0E6FF28
:10134C0019484FF4E47106F0DAFF1F606760EDE7AF
:10135C00524602212046FFF785FD35462846BDE85A
:10136C00F0876FF00A05D8E76FF00405D5E78AF32C
:10137C001188BFF36F8FB8F1000FEFD00023324606
:10138C003946204606F081FFE8E700BF389600009A
:10139C0091960000D6900000A6960000659600007D
:1013AC007C960000229600009595000008B54268D6
:1013BC00816002F00302032A034602D02AB1002006
:1013CC0000E0006800225A6008BD05490548064A3D
:1013DC00452306F09BFF0448452106F090FF00BF13
:1013EC000C970000D6900000BC96000038B50D4656
:1013FC0004462022002107F054FCEB68E361AB6843
:10140C00A3612B6823626B6863620022A2622A6963
:10141C0023B1591E194208BF42F001022261012278
:10142C00002104F12C0007F081FB48B10549064866
:10143C00064A2E2306F06AFF04482E2106F05FFFB1
:10144C0038BD00BF05970000D6900000DF96000065
:10145C002DE9F04F89B0CDE90123436A00278B4277
:10146C000446884605970797BA4653D300F11406ED
:10147C004FF02003EFF3118B83F31288BFF36F8FC0
:10148C003046D94604F058FC58B94C4A4C494D48A2
:10149C00882306F03BFF31464B4806F037FF882186
:1014AC0060E0304604F066FC079A2AB139462046C3
:1014BC0007F00BF80023079306A9204606F033FF2C
:1014CC000699414505462ED32268236A13F822104B
:1014DC0021F0030103F8221003EB820A2168424633
:1014EC00204606F044FFE3682060984216D00025A1
:1014FC00304604F02FFC40B389F31188BFF36F8F93
:10150C00059929B1A2690AB1204690470023059399
:10151C00002DADD1504609B0BDE8F08F236943F0E2
:10152C0008032361E3E718B1204606F03AFFDFE732
:10153C00DDE90132134338D0039107F0E7FA039940
:10154C0098BB304604F006FC78B91C4A1F491D486C
:10155C0040F2311306F0DAFE31461D4806F0D6FE95
:10156C0040F23111154806F0CAFE8BF31188BFF317
:10157C006F8FDDE9012304F12C0004F0E1FD054639
:10158C004FF02003EFF3118983F31288BFF36F8FB1
:10159C00304604F0D1FB00283FF477AF3046B5FA63
:1015AC0085F504F0E7FB6D09A2E707AB05AA204619
:1015BC00276806F013FF05469AE700BF389600002F
:1015CC0091960000D6900000A6960000659600004B
:1015DC007C9600002DE9F0410446C36908460E468E
:1015EC00984704F1140507464FF02003EFF31188D8
:1015FC0083F31288BFF36F8F284604F09DFB68B904
:10160C001A4A1B491B48882306F080FE29461A48B3
:10161C0006F07CFE8821154806F071FE284604F081
:10162C00A9FB337843F00103337061683A462046D6
:10163C0006F09DFE6060204606F062FF284604F02E
:10164C0089FB68B9094A0D490A4840F2311306F082
:10165C005DFE29460A4806F059FE40F23111DAE7E0
:10166C0088F31188BFF36F8FBDE8F08138960000C6
:10167C0091960000D6900000A6960000659600009A
:10168C007C9600002DE9F843044600F114074FF056
:10169C002003EFF3118883F31288BFF36F8F384662
:1016AC0004F04AFB054668B9354A36493648882362
:1016BC0006F02CFE3946354806F028FE88213048C5
:1016CC0006F01DFE384604F055FB2369A26813F0A2
:1016DC00080F02D163689A4200D9636A9B1A002BE7
:1016EC003FD0216A11F8223013F0030001EB82097C
:1016FC003AD0022803D151F82260B60805D1D80798
:10170C001FD4E369484698470646A16832462046EE
:10171C0006F02DFE3146A060204606F036FE384617
:10172C0004F018FB10BB164A1949174840F2311344
:10173C0006F0ECFD3946174806F0E8FD40F2311191
:10174C00BDE743F0020301F822304846E369A5687F
:10175C00984729460246204606F009FE0025A0605F
:10176C00DDE71D46A946DAE70546FBE788F3118855
:10177C00BFF36F8F002D8AD14846BDE8F88300BFB8
:10178C003896000091960000D6900000A6960000B6
:10179C00659600007C9600002DE9F0410446C36973
:1017AC0008460D46984704F1140607464FF02003EF
:1017BC00EFF3118883F31288BFF36F8F304604F078
:1017CC00BBFA68B9274A28492848882306F09EFDA9
:1017DC003146274806F09AFD8821224806F08FFDF5
:1017EC00304604F0C7FA2B786FF300032B70236993
:1017FC009B0705D5E268236A03EB82039D4222D145
:10180C002B786FF341032B70D4E90231994204D148
:10181C003A46204606F0ABFDA0603946204606F05D
:10182C00B4FD304604F096FA90B90E4A11490F48AF
:10183C0040F2311306F06AFD31460F4806F066FDA2
:10184C0040F23111C9E72B6867F39F032B60E8E77F
:10185C0088F31188BFF36F8F04F12C00BDE8F041C1
:10186C0004F016BC3896000091960000D69000004B
:10187C00A6960000659600007C9600002DE9F84FB6
:10188C00DFF8FCA03F4FAAEB07039F2B814688464D
:10189C000BD93D493D4A3E4840F2251306F036FD32
:1018AC0040F22511394806F02AFD3A4806F057FE59
:1018BC000646002834D13C4605464FF0010B5445F2
:1018CC0027D93549314A32484FF4997306F01EFD39
:1018DC00324806F01BFD4FF49971E3E7237B73B19B
:1018EC002368DB680BB12046984723681B6943B912
:1018FC00636804221968204600F04CFA0136103453
:10190C00DDE7204698470028F2D00BFA06F31D437A
:10191C00F4E7E3D3B9F1000F02D04FF0010A0DB98F
:10192C00BDE8F88FA94695FAA5F4B4FA84F40AFA3E
:10193C0004F3260107EB04146FEA030B25EA0305F5
:10194C00237B5BB1BB591B69A3B93E44042273686A
:10195C002046196809EA0B0900F01CFA002DE2D1A7
:10196C00B8F1000F04D04FF4A470002105F00CFD69
:10197C004D46D4E7204698470028EFD1E5E700BF55
:10198C00FC8E0000DC8E00003B9700000E970000E0
:10199C00D6900000AC0600205F97000080970000F6
:1019AC00014B53F8200070471C8F000008B503460C
:1019BC0008462BB1044A136000F038FD002008BD26
:1019CC006FF01500FBE700BF04000020014B012263
:1019DC001A707047CE08002010B50446084806F06F
:1019EC00BEFD5CB1BFF35B8F064B53E8001F0139A2
:1019FC0043E80012002AF8D1BFF35B8F10BD00BF83
:101A0C00A4060020A80600200020064BBFF35B8F25
:101A1C00014653E8000F43E80012002AF9D1BFF346
:101A2C005B8F7047A406002070B5FFF7EDFF104CDC
:101A3C00104E0546B44219D90F49104A104840F2CD
:101A4C00DD1306F063FC0F4806F060FC0B4840F217
:101A5C00DD1106F054FC63685B792BB123685B687D
:101A6C0013B12946204698471034E3E7F3D370BDF1
:101A7C00DC8E0000FC8E00005F9700000E970000CB
:101A8C00D69000008097000010B5044C0449204605
:101A9C00FFF7ACFC034B1C6010BD00BFB400002072
:101AAC00088F00009C060020084A094808B500234E
:101ABC001370084A1360084A4FF400411360FFF793
:101ACC0075FFBDE80840FFF7DFBF00BFCF0800205F
:101ADC0067850000A4060020A8060020014600220D
:101AEC0001480023FFF7B4BCB40000200148FFF705
:101AFC00C9BD00BFB4000020024B01461868FFF7B7
:101B0C004BBE00BF9C060020014806F006BD00BF7E
:101B1C00B400002070B5304B187800285BD0FFF76C
:101B2C00E5FF054660B3BFF35B8F2C4B53E8001FFA
:101B3C00013943E80012002AF8D1BFF35B8F284C1F
:101B4C00284EB44218D92849284A294840F2D113C2
:101B5C0006F0DCFB274806F0D9FB244840F2D111F3
:101B6C0006F0CDFB63685B7923B1236829461B68BB
:101B7C00204698471034E4E7F4D32846FFF7BCFF1F
:101B8C001D4B1E4C1B68002B19DD06F0F9FF4FF4A2
:101B9C007A72A0FB020302FB0131C30BD4E90020D3
:101BAC0043EA41439B1A4FEAD13140F2E93261EBEF
:101BBC000001934271F1000101D3FFF735FFD4E925
:101BCC00003213F57A7342F10002C4E90032BDE829
:101BDC007040FFF799BF70BDCE080020A80600200A
:101BEC00DC8E0000FC8E00005F9700000E9700005A
:101BFC00D690000080970000A40600201805002055
:101C0C0013B52B4806F0ABFC2A4B1B78002B36D0B7
:101C1C004FF02003EFF3118483F31288BFF36F8F1F
:101C2C00254804F089F868B9244A254925488823B1
:101C3C0006F06CFB2049244806F068FB88211F48FD
:101C4C0006F05DFB1C4804F095F8FFF763FF1A489B
:101C5C0004F080F868B9194A1C491A4840F231134B
:101C6C0006F054FB14491A4806F050FB40F23111AF
:101C7C00E5E784F31188BFF36F8F02B010BD154BED
:101C8C001B68002BF9D038B9002200231248CDE98B
:101C9C00002305F04DFFF0E70928EED10E4806F0C1
:101CAC0071FF0E4802B0BDE8104004F0F1B900BF5E
:101CBC00A8060020CF0800209806002038960000C7
:101CCC0091960000D6900000A69600006596000044
:101CDC007C960000A00600202005002008010020B2
:101CEC0010B5064B1B68044698472146A060044873
:101CFC00FFF770FCBDE81040FFF782BF0400002026
:101D0C00B400002070B5154D297829BB0120FFF7D0
:101D1C00B5FD134C134EB44217D91349134A14484A
:101D2C004FF4CA7306F0F2FA124806F0EFFA0F48B5
:101D3C004FF4CA7106F0E3FA63685B791BB1236850
:101D4C0020469B6898471034E5E7F5D3FFF7E2FE91
:101D5C000028FBD101232B7070BD00BFCF080020E1
:101D6C00DC8E0000FC8E00005F9700000E970000D8
:101D7C00D690000080970000044A054B9B1AB1EBEB
:101D8C00D30F34BF52F8310000207047848E00000E
:101D9C00DC8E00000E4BC31A1B11013310B5DBB2E5
:101DAC0048B90C490C480D4ADF2306F0AFFA0B4832
:101DBC00DF2106F0A4FA4468237143689A714368E2
:101DCC001960436801225A71BDE81040FFF7FEBD4F
:101DDC00DC8E000023980000D6900000EB970000EA
:101DEC002DE9F04F8FB004AFC1F34A28B8600D460F
:101DFC0091467B600C0DB8F1000F68D0002607F1FE
:101E0C0014034FF0040B4FF00A0AC7F80C80C7E913
:101E1C0007667E620193CDF808B0CDF800A007F1FB
:101E2C001C03F96832464846FEF740FDB0F5006FDA
:101E3C0003461CD36C468AB0D9F8041004AB2C486A
:101E4C00C3E9050140F2FF71D9611A464FF40071E4
:101E5C001984284B42F8103F274833464FF412514F
:101E6C00FFF7BEFFA5462C37BD46BDE8F08FC0F38B
:101E7C000A0804F11700184420F0070080083B60A2
:101E8C00FFF72CFE68F35325044640B33B681B4A0E
:101E9C00C7E9083600F1100107F11403F961CDE927
:101EAC0000A3CDF808B0F96807F11C034846FEF70B
:101EBC00FDFC002813DA12491248134A4FF48573BB
:101ECC0006F024FA10484FF4857106F018FA04F164
:101EDC00170020F007008008FFF700FE044668F3A7
:101EEC0053257B68B9682A46204606F079FBBAE789
:101EFC004398000004000001A48E0000C18500007E
:101F0C00AF980000D6900000829800002DE9F04FA9
:101F1C0087B0DDE91269DDE9105A04460F46934695
:101F2C009846BEB11021CDF80090334652460020A1
:101F3C00CDF81490FEF7A4FA011E0CDA2149224ABE
:101F4C0022484FF4957306F0E1F94FF495711E4851
:101F5C0006F0D5F9314605F1170008441C4B0391E6
:101F6C0004F007040BF0070BE40020F0070003EA71
:101F7C00412344EA8B1480081C43FFF7AFFD44EA6D
:101F8C0005540546A0B19EB10399CDF80090334697
:101F9C0052461030FEF774FA002809DA09490A4A49
:101FAC000A484FF4A27306F0B1F94FF4A271CEE7D0
:101FBC00434622463946284607B0BDE8F04F06F0A6
:101FCC000FBB00BFAE98000082980000D6900000B6
:101FDC0000FE0F000EB403B503AB014653F8042BFF
:101FEC000448019301F0E8F902B05DF804EB03B08A
:101FFC00704700BF21200000CA0605D48B064CBFD9
:10200C0002490349FFF7E6BF704700BF10AA000062
:10201C00B898000038B54B681A68CB689A420546E8
:10202C000C4602D1084606F057FB6368BFF35B8F82
:10203C0053E8002F511C43E800100028F8D1BFF3DF
:10204C005B8FA3689D5463681A68E3689A4209D948
:10205C0005490648064A7A2306F058F904487A21BD
:10206C0006F04DF9002038BDEA980000D69000002B
:10207C00BB9800002DE9F04F89B09B46DDE9149325
:10208C009DF84C700593169B179E069204460D46C0
:10209C000493002F00F09480042F0BD999499A4A8D
:1020AC009A4840F2BF1306F031F940F2BF1196483E
:1020BC0006F025F906F00803079306F079FA06F006
:1020CC00020A024600284AD091492046FFF782FFB7
:1020DC008046BAF1000F08D016F0440F41D18D495B
:1020EC002A462046FFF776FF804406F0010353B1E1
:1020FC00894B8A4953F82720894B2046002A08BF70
:10210C001A46FFF767FF06F00803002B55D0854BE6
:10211C00854953F827202046FFF75CFF0546069BB0
:10212C002BB182491A462046FFF754FF0544BBF1F8
:10213C00000F05D07E495A462046FFF74BFF054459
:10214C004544B9F1000F4CD1049B002B61D1F3072E
:10215C0000F1D28031462046FFF74EFFC6E08046A4
:10216C00B7E7744B18680028BED0734B4FF47A7ED7
:10217C001B68B5FBF3F54FF46162B5FBF0F300FBA4
:10218C001355B3FBF2FA0EFB05F502FB1A323C2198
:10219C00B5FBF0FCB2FBF1F300FB1C5501FB132269
:1021AC000EFB05F50092B5FBF0F56449CDE901C5D0
:1021BC0052462046FFF70EFF96E706F00805AEE7FD
:1021CC00BBF1010F08D1B9F1000F1CD1049B002BFE
:1021DC0000F08C8000251CE0B9F1000FF6D05848B7
:1021EC0012E0584858494B46224605F09CFF0028FF
:1021FC000CDA5649444A454840F2192306F086F851
:10220C0040F2192153E74F483D46EBE7049B002B66
:10221C0069D0DFF83C91DFF83CA1DDF81080314645
:10222C00B8F1100F204628BF4FF01008FFF7E4FE5E
:10223C004FF0000B5D4542DC059B51461A78204659
:10224C00FFF7C8FE4FF0010B1BF0070F03D14946F7
:10225C002046FFF7BFFED84538D9059B514613F8E9
:10226C000B202046FFF7B6FE0BF1010BBBF1100F54
:10227C00EAD1394920464FF0000BFFF7ABFE5A4626
:10228C00059B9A5CA2F120015F2928BF2E223349BD
:10229C002046FFF79FFE0BF1010BBBF1100F1AD07C
:1022AC001BF0070F03D149462046FFF793FED84594
:1022BC005A46E5D849462046FFF78CFEEBE74946DF
:1022CC002046FFF787FE0BF1010BB3E724492046AC
:1022DC00FFF780FEC8E7059B43440593049BB3EBD3
:1022EC000803049399D1002F7FF431AF204609B035
:1022FC00BDE8F04F06F0F0B9094A08492046FFF74F
:10230C0069FE27E71F990000BB980000D6900000DB
:10231C002B9900002F9900002C8F0000E6910000F3
:10232C001A990000408F0000549900005A9900003F
:10233C005E990000B4060020B00600203899000019
:10234C00FF86000021200000C533000063990000C7
:10235C00749900006C99000076990000789900003F
:10236C00729900002DE9F0410F884B688E6886B099
:10237C0005460C469046C7F382175BB1144A9B1A6C
:10238C0043F3CF01002920DB2078C0F3C200FFF714
:10239C00F3FC03462146608851F8102B0197C2F3D9
:1023AC004A22002A01EB0204C0F30B1008BF0021E3
:1023BC000022CDE90408CDE90214009231462846EA
:1023CC00FFF758FE06B0BDE8F0810023E2E700BF3E
:1023DC00848E000073B542F20F738B4228BF0B46FC
:1023EC0005680F4A04460521684605F013FC63682E
:1023FC000C495B6806460B22284606F060F96368B8
:10240C003246694628465B6806F059F96368064906
:10241C005B681B22284606F052F902B070BD00BF63
:10242C005E910000979900007B990000074A0021FB
:10243C000123904206D8064A01B901231360054BCB
:10244C001860704740085B000121F2E740420F0022
:10245C00B0060020B4060020014B01221A70704710
:10246C00D0080020014B002019607047CC060020DA
:10247C00024B034801221A7006F02EB9D108002035
:10248C00708F00000148FFF7A5BF00BF708F0000E0
:10249C0010B5064B18680C46FFF782FA2146034626
:1024AC00BDE8104002480F22184700BFCC060020A0
:1024BC00708F000010B9074B18707047064B1B78D3
:1024CC001BB141F2883006F00EBBA420002104F0B1
:1024DC005BBF00BFD0080020D10800202DE9F843D5
:1024EC00DFF874901D4F80460E46042499F8005076
:1024FC0095B903F089F928463246414603F036F97E
:10250C00054603F08BF9E5B101233B7099F80030D7
:10251C0073B93046BDE8F88332464146002003F0DB
:10252C0025F90546EFE72046FFF7C4FF651E2C464C
:10253C00002003F05FF90028EBD03B78002BF2D1A0
:10254C00E7E73B78002BE4D0013C2046FFF7B2FFD5
:10255C003B78002BCAD1DCE7D1080020D008002042
:10256C00F8B5074F0D4604464618B44201D128462B
:10257C00F8BD14F8011BBB6801485B689847F4E789
:10258C00388D000010B543681C68094806F0AFFA96
:10259C0048B908490848094A9A2305F0B7FE074884
:1025AC009A2105F0ACFE23685B685C6010BD00BF2F
:1025BC00388D0000119A0000D6900000D3990000CD
:1025CC00014B036000207047B48F00002DE9F047E9
:1025DC00804600AF0C46002936D0E9468AB0D1E9D6
:1025EC000012A3686D461C482E464FF0050AC5E93B
:1025FC000501C5E9072346F810AF184832460023F9
:10260C004FF42151FFF7ECFBCD46D4E9031263697B
:10261C00AD461348C5F810A0C5E90501C5E9072367
:10262C000E48002332464FF42151FFF7D9FBCD461B
:10263C00E3690C4A0948012106F02BF8A3690A4A00
:10264C000648012106F025F82146404603F00EF914
:10265C00BD46BDE8F08700BF459A0000C48E00005F
:10266C00749A0000A39A0000B29A000030BFFFF7E2
:10267C00FDBF00BF114B124A2DE9F041D518DFF810
:10268C004480013DB5FBF3F55D430F4B08EB0304B0
:10269C00013CB4FBF3F403FB04540E1B07460B493B
:1026AC00304606F0F0FA701942460021083E06F05A
:1026BC00F8FA3E6704F10800BDE8F0810100000063
:1026CC00000000000400000004000000FC8E00006C
:1026DC00044B99685869884203D003494FF08052E3
:1026EC000A6070477C08002004ED00E070B5294CAE
:1026FC0006460D462848294906F036F8A36AD9043F
:10270C003CD52548264906F02FF81720A36A1A0550
:10271C0004D52148234906F027F818201D4CA36A3C
:10272C009B0512D51C48204906F01EF8A36BA26A23
:10273C00100409D51D4A1848012105F0AAFF1EB145
:10274C00A36A23F40043A3621920124CA36A59050F
:10275C0004D51148164906F007F81A20A36ADA05C1
:10276C000ED50D48134905F0FFFF1B20094A936A4B
:10277C0043F47F43936200232B7070BD1620C5E792
:10278C00A36A9B04F2D504480B4905F0EDFF1C200D
:10279C00ECE700BF00ED00E0C48E0000E09A000002
:1027AC00F69A0000079B00001A9B0000339B000068
:1027BC00489B0000639B00007B9B000010B5204CE5
:1027CC002049214805F0D0FFA36A990136D51E484F
:1027DC001E4905F0C9FF1E20A36ADA0104D51A4868
:1027EC001B4905F0C1FF1F20154CA36A1B0304D520
:1027FC001548184905F0B8FF2120A36A590304D5E0
:10280C001148154905F0B0FF22200D4CA36A9A031C
:10281C0004D50D48114905F0A7FF2320A36ADB035B
:10282C0004D509480E4905F09FFF2420044A936AF9
:10283C006FEA03436FEA1343936210BD1D20CBE78D
:10284C0000ED00E0AA9B0000C48E0000C29B0000BB
:10285C00D59B0000EF9B00000D9C0000329C0000FB
:10286C004C9C00002DE9F8433F4D804689463F487B
:10287C003F49174605F078FFAB6ADA0627D53D4984
:10288C003A4805F071FF1124AB6A1B0704D53A498D
:10289C00364805F069FF1224334DAB6A9E0718D5F4
:1028AC003649324805F060FF6E6BAB6A1C0646D5A4
:1028BC00334A2E483346012105F0EBFEB9F1000FE7
:1028CC0003D0AB6A23F08003AB62132403E0102423
:1028DC00DAE76FF01506244DAB6AD80704D5294901
:1028EC00224805F041FF1424AB6A990604D5264909
:1028FC001E4805F039FF15241B4DAB6ADA0602D4CD
:10290C00AB6A9B070AD56B68180507D5414630465C
:10291C0000F0EAFAB0B180F309880224124B9A6AEB
:10292C00920642BF5A6A22F400525A629A6A42F0E4
:10293C00FF029A6200233B702046BDE8F8836FF0DB
:10294C001506C2E7AB6AD906E8D51049104A1148FA
:10295C0040F25D1305F0DAFC0F4805F0D7FC0C488B
:10296C0040F25D1105F0CBFC00ED00E0C48E0000E0
:10297C00779C00008D9C0000079B0000C09C000011
:10298C00D89C0000EE9C00007B9B00003F9D00004B
:10299C000D9D0000D6900000899D0000F0B5794B8C
:1029AC008BB00446586800AFC0F30803002686F3CA
:1029BC001188BFF36F8F02F07F45B5F17F4F07D1C0
:1029CC0002F00C05082D12D16F49704805F0CCFEB1
:1029DC006F49704A70484FF48B6305F097FC6F4851
:1029EC0005F094FC4FF48B616A4805F088FC1507E0
:1029FC004CBF0C460126002CEAD00022FA71DA1EDC
:102A0C00092A00F29E80DFE802F0059497779C9CDF
:102A1C009C9C9C9A62495D485A4D05F0A5FE00238A
:102A2C00FB71EB6A9A0705D55E49584805F09CFE88
:102A3C00002329E0EB6A002B01DA5B49F5E7EB6A2E
:102A4C005B0069D55949514805F08EFE6B69A26946
:102A5C0043F480736B61BFF34F8FBFF36F8F6B6960
:102A6C0032F8022C23F480736B61BFF34F8FBFF3EA
:102A7C006F8F4DF602739A4227D123684C4A434814
:102A8C00012105F006FE2368FA79DAB907F1080589
:102A9C0004F1200C206861682A4603C2083464459E
:102AAC001546F7D17A6A002E67D0C2F3080121B916
:102ABC006FEA52226FEA42227A6207F10801184645
:102ACC00FFF784FD2C37BD46F0BDAB6ADBB233B1EA
:102ADC00FA1D01212046FFF7C5FE0346D4E7AB6A79
:102AEC0013F47F4F04D0F91D0120FFF7FFFDF4E72D
:102AFC00AB6AB3F5803F02D3FFF760FEEDE72D49DB
:102B0C00244A254840F22A3305F000FC2A4805F0F7
:102B1C00FDFB40F22A3167E726491E4A1E4840F267
:102B2C002E3305F0F3FB254805F0F0FB40F22E3177
:102B3C005AE7FA1D0021CDE7F91D0020D5E7204901
:102B4C0073E7204A204910F4F87F6D468AB018BF0D
:102B5C0011466A46103BD3611C484FF40073138432
:102B6C001B4BC2E9050142F8103F084800234FF403
:102B7C001151FFF735F9AD465AE722F4FF7222F0F6
:102B8C00010299E700ED00E0DA9D0000C48E000020
:102B9C00059E00000D9D0000D6900000189E0000C0
:102BAC00569E00006D9E00008E9E00009C9E0000B4
:102BBC00BB9E00000C970000D79E0000FB9E0000FF
:102BCC002B9F0000C19D0000AC9D00004F9F00009A
:102BDC0004000001024A536943F01003536170472B
:102BEC0000ED00E0EFF30880EFF3098101B57246C8
:102BFC00FFF7D4FE01BD00BF002080F31488BFF3A3
:102C0C006F8F00F01DFC00200D490860BFF34F8F43
:102C1C000C4880F3088800F03DF8202080F31188E0
:102C2C0009484FF40461401880F30988EFF31480CD
:102C3C000221084380F31488BFF36F8F00F01CF956
:102C4C0094ED00E0C01A0020000D0020BFF34F8F60
:102C5C000549064BCA6802F4E0621343CB60BFF32C
:102C6C004F8F00BFFDE700BF00ED00E00400FA0548
:102C7C000749D1F890200023C2F30722184693424B
:102C8C0000DB7047C1F89830C1F8A0000133F6E7BB
:102C9C0000ED00E008B572B6002383F31388FFF74C
:102CAC00E7FF144B4FF0FF32C3F88020C3F88420A9
:102CBC00C3F88820C3F88C20C3F89020C3F8942064
:102CCC00C3F89820C3F89C20C3F88021C3F8842152
:102CDC00C3F88821C3F88C21C3F89021C3F8942140
:102CEC00C3F89821C3F89C2162B6BFF34F8FBFF392
:102CFC006F8F08BD00E100E0084B9B6883420BD14D
:102D0C00EFF3058343B1064B5A6842F080525A6088
:102D1C005A6A22F400425A6204F070BB7C0800200C
:102D2C0000ED00E0094A93686FF00A0199670849C1
:102D3C0058674B6843F080534B60002383F3118832
:102D4C00BFF36F8F9368986F704700BF7C080020AB
:102D5C0000ED00E015498A684FF030001044EFF3A5
:102D6C00098C80E8F01F202080F31288BFF36F8F4E
:102D7C000F4F4FF000664A698A603E604FF0700456
:102D8C00141920680B4C2060506F0023536780F39C
:102D9C00118804B5104600F025F9BDE8044002F195
:102DAC00300090E8F01F8CF3098870477C080020F5
:102DBC0004ED00E0F40600201EF0040F0CBFEFF34E
:102DCC000880EFF30980816911F8021C0229FFD0F9
:102DDC0001B505F0BEFC01BD40B2002807DB044A7A
:102DEC004109012300F01F00834042F82130704755
:102DFC0000E100E0054B420900F01F0053F82220CF
:102E0C00012303FA00F01040704700BF00E100E01E
:102E1C0038B54B1C072B04460D460FD9114A1249E5
:102E2C001248582305F072FA114829460723224606
:102E3C0005F06CFA0B48582105F061FA40B20028F5
:102E4C00ACBF00F160400B4A4FEA4313B8BF00F02F
:102E5C000F00DBB2AABF00F56140135480F80033B9
:102E6C0038BD00BF629F0000999F0000D690000003
:102E7C00B49F000014ED00E00B4A08B50B4B22F098
:102E8C007F029A60BFF34F8FBFF36F8FD3F8882008
:102E9C0022F47002C3F8882002F0B2FD04F01EFB8D
:102EAC0000F074F802F0FEFD0000000000ED00E000
:102EBC0042F8203C009B42F81C3C0A49019B42F81A
:102ECC00183C029B42F8143C21F001014FF0807336
:102EDC0042F8043C42F8081C0023203A0265436780
:102EEC00704700BF210D0000094A0346906870B17D
:102EFC0013F1160F006E05D0A0F140029A4205D8CE
:102F0C00834203D2814228BF0020704700207047C3
:102F1C007C08002008B514460A4A0B4B9060026FDF
:102F2C001A600D4600F05EF8204685F309880021F2
:102F3C0063B681F31188BFF36F8F00220023FDF776
:102F4C00E9FE00BF7C080020F40600200149102295
:102F5C000A60704710ED00E072B6404080F31188B3
:102F6C00BFF36F8FBFF34F8F30BF62B6BFF36F8F5E
:102F7C00704700BF72B6494081F31188BFF34F8F81
:102F8C0020BF80F3118862B6704700BF044800234D
:102F9C002021C2180133272B82F80013F9D1704776
:102FAC0000E100E001B5EFF30580A0F110004FEA5D
:102FBC00C0000449014409C99847BDE801400249D1
:102FCC00084700004C8D0000DD260000024B034A30
:102FDC000348012100F084B800000120000000200B
:102FEC00B48F0000026E054B403A1A60044A40212F
:102FFC00C3E901121846012100F098B8F806002028
:10300C0000000B15072808B5034607D90C480D4AD4
:10301C00012105F03EFB6FF0150008BD0A48C0F811
:10302C0098300A6822F01F021A4342F01002C0F8CE
:10303C009C208A6842F00102C0F8A0201846ECE7F8
:10304C00BC8E0000F89F000000ED00E0F0B50E46CD
:10305C0085B01F4604460025B5420DDA606810B3F2
:10306C0097B1431E18420AD0104A11482B46012131
:10307C0005F00FFB6FF01502104605B0F0BD1F28D0
:10308C00F2D921680B42EFD12368019305F074FB50
:10309C00A36801A90343D0B20393FFF7B3FF10F168
:1030AC00160FE7D0421C01350C34D5E71EA00000EA
:1030BC00BC8E0000044B0522C3F89420BFF34F8F45
:1030CC00BFF36F8F704700BF00ED00E0BFF35F8F61
:1030DC00024B0022C3F89420704700BF00ED00E0C3
:1030EC0038B50D4D01232A780C46FFF7AFFF287039
:1030FC0016300FD1094A0A490A4840F26D1305F0FF
:10310C0005F90948214605F001F9044840F26D1112
:10311C0005F0F5F838BD00BFE308002041A0000021
:10312C000C970000D690000070A0000010B5124A59
:10313C00002312780C46FFF789FF10F1160F04D00C
:10314C000E4B0022072810DD10BD0D4A0D490E480C
:10315C004FF4C67305F0DAF80C48214605F0D6F8A2
:10316C0007484FF4C67105F0CAF8C3F89800C3F8C5
:10317C00A0200130E6E700BFE308002000ED00E0EE
:10318C0041A000000C970000D69000009CA000000D
:10319C002DE9F0436F490C68082C85B010D96E4AA4
:1031AC006E496F484FF4D27305F0B0F821466D4864
:1031BC00082205F0ABF84FF4D271674805F09FF880
:1031CC00FFF784FF684849680022944201F10C0122
:1031DC0021D1664EDFF8988134706846FFF7F0F91C
:1031EC0000250746AF4229D1FFF764FF5E4BD3F8A9
:1031FC009030C3F30723082B00F0A8805D49564A92
:10320C00574840F20F2305F081F85B4805F07EF833
:10321C0040F20F21D1E7C0F8982051F80C3C23F074
:10322C001F03134343F01003C0F89C3051F8043CC7
:10323C0043F00103C0F8A0300132C6E7009A02EB5C
:10324C0005132901D3F80C9009EA0804B4F5000F12
:10325C0068D01AD8B4F5001F3ED0B4F5800F55D005
:10326C00B4F5801F21D0454A4548012105F008FAE4
:10327C003A49394A3A484FF4E77305F047F8414860
:10328C0005F044F84FF4E77197E7B4F1807F53D021
:10329C00B4F1007FE7D198685C68525805F06CFA7D
:1032AC00CDE9014240F480200AE098685C685258ED
:1032BC0005F062FACDE9014240F0885040F430202C
:1032CC000390307801A9FFF79DFE0028D0DB3378FE
:1032DC0001333370013585E798685C68525805F006
:1032EC004BFA40F0885040F4002019F0010FCDE962
:1032FC0001420390E5D02449174A1948702305F080
:10330C0005F8224805F002F8702156E798685C68C9
:10331C00525805F031FA40F0E060CDE9014240F43A
:10332C000030CDE798685C68525805F025FACDE975
:10333C00014240F08270C3E798685C68525805F00F
:10334C001BFACDE9014240F08870B9E7002005B0C6
:10335C00BDE8F083C08F000041A000000C97000076
:10336C00D6900000C9A0000000ED00E0E3080020AA
:10337C000000F0FF9EA10000EEA1000052A1000091
:10338C00BC8E000074A10000FDA0000023A1000071
:10339C0008B5024B1B689847002008BD04070020A5
:1033AC00034B044A1860937843F002039370704700
:1033BC000407002010000020F0B587B007460E4629
:1033CC0014460021102268461D4605F06AFC0223B3
:1033DC008DF802302A46054B019321466846CDE90B
:1033EC00047604F043FC07B0F0BD00BFA5870000D5
:1033FC0008B50649064821F00701C1F1005202F553
:10340C008032FDF7A1FC002008BD00BF071B002087
:10341C0008070020044A0123C2F840354FF08042CF
:10342C000020C2F87835704700E0014020B1034B12
:10343C00800143F001031847704700BF008F000064
:10344C0000F08EBE37B50C460A490B4A411A402390
:10345C000093491105462346084805F0BBF9011EA7
:10346C0005DA2846234603B0BDE83040184703B0C0
:10347C0030BD00BF280700204B880000248D0000C1
:10348C00C9B2012908B509D908490948094A7A235A
:10349C0004F03CFF07487A2104F031FF03690C2249
:1034AC0001FB0233986C00F0070008BD5FA200001E
:1034BC00D690000022A2000070B5C9B201290369A0
:1034CC000BD9194919481A4A40F25D1304F01EFF32
:1034DC00174840F25D1104F012FF4FF02004EFF397
:1034EC00118584F31288BFF36F8F0C2606FB013411
:1034FC00A46C14F0C00408D0A24206D085F3118845
:10350C00BFF36F8F4FF0FF3070BD71430B4401223E
:10351C009A6485F31188BFF36F8F43680B445B6823
:10352C0098470020F0E700BF5FA20000D690000093
:10353C0022A2000070B50D460649411A04464911F5
:10354C0005484022FFF7B8FF2B4601462046BDE850
:10355C007040184728070020248D0000002270B509
:10356C00012104461046FFF753FC0F4800F0D8FF2A
:10357C000E4B984215D100F0E3FF26690C493046FA
:10358C0004F099FE00280BDB0125B5642469084979
:10359C0004F1200004F08FFE002801DB656500209B
:1035AC0070BD6FF00400FBE7F53500000000AD0BBB
:1035BC00E08F000070B501460C2309484B43C4183A
:1035CC00D4E91056483300221844226405F0EFF871
:1035DC002DB132462B460348BDE87040184770BDEC
:1035EC0028070020248D0000012808B506D00428E7
:1035FC0008D098B90F4B9B6C5B0719D1BDE80840FC
:10360C00FFF7D8BF0C490D4A0D4840F26E2304F069
:10361C007DFE40F26E21094804F071FE0649074A0E
:10362C00074840F2722304F071FE40F27221F2E777
:10363C0008BD00BF280700200C97000022A2000044
:10364C00D690000008B54FF02003EFF3118183F3FF
:10365C001288BFF36F8F124A136843F00200106098
:10366C00DA0708D481F31188BFF36F8F0120BDE80E
:10367C00084000F08BBF4FF08043D3F80C24D3F8F4
:10368C000C34DB07EED5074805F091F881F311886F
:10369C00BFF36F8F0020BDE80840FFF78BBF00BF62
:1036AC0080070020700700201FB500220123CDE900
:1036BC000223094ACDF800D06B46CDF804D005F0B2
:1036CC00B7F8002805DB4FF480420023684602F06F
:1036DC0037FD05B05DF804FB5D88000010B5074CA4
:1036EC0023782BB94FF4A57005F0FDF90123237055
:1036FC00BDE81040002000F049BF00BFE4080020E6
:10370C0010B54FF02003EFF3118483F31288BFF34D
:10371C006F8F074A136823F00201DB07116002D494
:10372C00012000F0C7FF84F31188BFF36F8F10BD29
:10373C00800700202DE9F0414549BFF35B8F064619
:10374C00012251E8003F41E800200028F9D1BFF3E5
:10375C005B8FA3B93F4940484B60CB608A60FDF753
:10376C008BFD00280BDA3D493D4A3E484FF40C7363
:10377C0004F0CCFD4FF40C71394804F0C0FD76B365
:10378C00731E012B59D8012E07D14FF08043D3F86B
:10379C001C3403F00303012B21D005F0B7F90546C7
:1037AC00F8B9314B1B78E3B14FF080430222C3F8D8
:1037BC0008230746DFF8B4804FF08044D4F818246F
:1037CC00D4F81834D20316D503F00303012B01D01F
:1037DC00012E10D15DB387F31188BFF36F8FBDE855
:1037EC00F0814FF02003EFF3118783F31288BFF3BE
:1037FC006F8F0125DEE7ADB13846FFF7BBFBD4F880
:10380C001835002BDAD1D4F80421002AD6D0C4F80C
:10381C000431D4F804310123C4F81835C8F88031C8
:10382C00A360CBE70021212003F0AEFDE7E74FF0CA
:10383C0080430222C3F80423D1E70D49084A094802
:10384C0040F2422304F062FD40F2422194E700BFB3
:10385C00240700201407002048070020639900006B
:10386C0022A20000D6900000F70C002000E100E03E
:10387C000C97000008B5074805F039F938B106482F
:10388C00FFF78EFD0448FDF73FFA002008BD6FF0EE
:10389C001200FBE7388D0000A93800000A2838B563
:1038AC00074D044604D1AB680D215B682846984748
:1038BC00AB6803485B68E1B29847204638BD00BF4F
:1038CC00388D000008B50268530904D14FF0FF335E
:1038DC00D340DB070BD407490748084A40F245336D
:1038EC0004F014FD054840F2453104F008FD4FF09A
:1038FC00A04008BDDFA20000D6900000ACA20000E2
:10390C002DE9F04FDFF85891DFF858A185B0154636
:10391C00834600EB8108D84503D1002005B0BDE8F3
:10392C00F08FDBF80030D904C3F3432203F07F049B
:10393C0000F18F807F2C4FEA134319F8027008BFF7
:10394C004FF0FF34192B00F28780DFE803F00D14E1
:10395C001A1D20261D85858585356185858585857E
:10396C008585858564797C7FC5F80C45631C5CD1A5
:10397C000BF1040BCFE7C5F81445661CF8D00026F4
:10398C005CE0C5F80845F1E7C5F81045F5E7601CA3
:10399C00C5F80845ECD0002604E0611CC5F80C45C0
:1039AC00E6D0012603A80394FFF78CFF012202FA4C
:1039BC0004F3C0F80C3508E0C5F80845002FDCD13D
:1039CC00631CD5D0002632460627DBF80030019365
:1039DC0003F40051002918BF002203A8009218BF5D
:1039EC0001260394FFF76EFF019B009A00EB840005
:1039FC00C3F3C114D0F800173B0243EA840313430A
:103A0C0001EA0A010B4343EA4603C0F80037AFE76B
:103A1C00C5F80C45D2E7C5F86045621CDBF80030F0
:103A2C00A6D0C3F38033002BBBD003A80394FFF7BD
:103A3C0049FF012606FA04F3C0F808353246C4E7FC
:103A4C00C5F86445E9E7C5F86845E6E7C5F86C458F
:103A5C00E3E76FF0150061E76FF085005EE700BFEC
:103A6C0002A30000F0F8FCFF2DE9F341002206460A
:103A7C0001210220FFF7CCF90220FFF7ADF977689E
:103A8C0035693C680021C4F800152E60D7F80C800D
:103A9C0001AA404604F0E2FE0028C0F29580019B8A
:103AAC00D8F8002019791868FFF72AFF0028C0F20F
:103ABC008B806B7A012B21D1AB7A032B1ED1E87A48
:103ACC0008B101281AD12A7A12B1022A16D10E2273
:103ADC006B687168B3F5164FD1F800C077D02BD84E
:103AEC00B3F5165F76D014D8B3F5966F74D008D8AA
:103AFC00B3F5967F73D0B3F5167F73D06FF0850056
:103B0C0062E0B3F5166F70D0B3F5965FF6D15B4BF0
:103B1C003CE0B3F5E14F6BD007D8B3F5615F69D0EA
:103B2C00B3F5964FEAD1564B30E047F612218B4253
:103B3C00E4D14FF4000329E0B3F5613F5CD013D816
:103B4C00B3F5963F5BD009D84DF6C0218B4258D0C7
:103B5C00B3F5614FD2D14FF46B0317E0B3F5E13FEE
:103B6C00CCD14FF0EB7311E0B3F5612F4CD008D8EA
:103B7C0044498B424BD0B3F5E12FBFD14FF0E863F2
:103B8C0004E041498B42B9D14FF080533169CCF8F4
:103B9C00243573681B680243C3F86C250B1DD5E9EB
:103BAC00010183E803007B6899073FD505F11800F4
:103BBC0001F064F8354B98422CD03548354A012138
:103BCC0004F05EFD6FF0040002B0BDE8F0814FF42C
:103BDC001D03DBE7304BD9E74FF49E23D6E74FF4B8
:103BEC00A033D3E74FF41C33D0E74FF41D23CDE7BC
:103BFC002A4BCBE72A4BC9E74FF06C73C6E7294B2E
:103C0C00C4E74FF46503C1E74FF07063BEE74FF0B4
:103C1C008063BBE7287E04F10C0204F5907104F07C
:103C2C00A9FE2B7E0120984000F0FAFB0823C4F873
:103C3C0000353B7A53B9C4F81031D4F810316B69A4
:103C4C00C4F834350123C4F8383523607B689A07EF
:103C5C005CBF4FF48073C4F804337B68DB0644BF4D
:103C6C004FF48003C4F804332B69C4F844350020A6
:103C7C000123C4F84805A360E360A5E700B0130076
:103C8C0000A04E0090D0030040420F000000AD0B8E
:103C9C00D48E00000AA300000050270000C075005D
:103CAC0000F03A0000903A01F8B5044607690D4659
:103CBC0004F02CFFB0B92E4B1B789BB164266068C6
:103CCC0004F0FAFD00BB012004F052FE013EF6D1D7
:103CDC000021212003F058FBF0E786F31188BFF395
:103CEC006F8FF5E74FF02003EFF3118683F3128803
:103CFC00BFF36F8F6068314604F0DEFD90B986F338
:103D0C001188BFF36F8FEDE74FF02003EFF31186AF
:103D1C0083F31288BFF36F8F6068314604F0CCFDDB
:103D2C000028DAD03B691D70626838691368C3F8E3
:103D3C0044050120C3F848050020C3F82001D3F83E
:103D4C002051C3F858015268D3F85801D20608D54F
:103D5C00626812680820C2F800054FF48002C3F8AC
:103D6C00042301229A6081F31188BFF36F8FF8BD91
:103D7C00F70C002070B40E49D1E90034D01AC318E6
:103D8C0044F1000422F07F46C1E90034A6F500138B
:103D9C00B3F5400F09D2074B1B681A0A1B069C1976
:103DAC00054B42F10005C3E9004570BC03F006BDAC
:103DBC00680500208C070020700500200D4B18684A
:103DCC00010A0006BFF35F8F0B4BD3F804351818AC
:103DDC0041F10001B3F5801F0AD2084BD3E900234F
:103DEC00904271EB030303D210F1807041F100019A
:103DFC00704700BF8C0700200010014070050020A8
:103E0C002DE9F7432F4CD4F8043399070BD5D4F88C
:103E1C00043143B12C4A0023C4F80431D4F80431E2
:103E2C00136801331360D4F80433DA032AD5BFF3D3
:103E3C005B8F264B53E8002F22F0010143E8001062
:103E4C000028F7D1BFF35B8FD30702D4D4F84031ED
:103E5C00C3B10025C4F84051D4F84031FFF7AEFF90
:103E6C004FF02003EFF3118283F31288BFF36F8FAF
:103E7C00174BD3E90267B042B94106D282F31188DD
:103E8C00BFF36F8F03B0BDE8F0834FF0FF384FF0F6
:103E9C00FF39C3E90289D3E900101D604FF4803368
:103EAC00C4F84833C4F84051D4F8403182F3118837
:103EBC00BFF36F8F0029E5D0009032463B46284671
:103ECC008847DFE7001001408C07002084070020A2
:103EDC00580500202DE9F84F4B4DBFF35B8F06467C
:103EEC000F4655E8008F28F0010345E80032002A00
:103EFC00F7D1BFF35B8F454C4FF48039C4F808936E
:103F0C00BFF35F8FBFF36F8FFFF758FFB04271EBBA
:103F1C00070308F0010840D23D4B301A67EB010152
:103F2C00984271F100014CD23A4BD3E902239F42E3
:103F3C0008BF96423ED04FF0000CC4F84893C4F82A
:103F4C0040C126F07F40D4F84031DFF8CCA0834646
:103F5C0003216FF0020E2BF07F43C4F84035C4F8F8
:103F6C004493D4F80425AEEB02035B4423F07F4367
:103F7C0053451FD9D4F840315BB1D4F80425131A3A
:103F8C0023F07F43B3F5000F14D9C4F840C1D4F823
:103F9C00403101EB020B0131DDE7204BBFF35B8FAE
:103FAC0053E8001F41F0010143E80012002AF7D149
:103FBC00BFF35B8F174B1A4A1A60C3E902670022E2
:103FCC005A60B8F1000F1CD0BFF35B8F55E8003F6F
:103FDC0043F0010345E80032002AF7D1BFF35B8FB1
:103FEC004FF48033C4F804330C4BBFF35B8F1B6866
:103FFC00BFF35B8FDB0742BF0A4B4FF40032C3F8B1
:10400C000021BDE8F88F00BF880700200010014098
:10401C000100800058050020FDFF7F008407002070
:10402C00813D000000E100E070B5194C194BC4F85B
:10403C000833C4F84833184B00254FF0FF304FF0CD
:10404C00FF31C4F80855C3E902014FF48033C4F8BA
:10405C000433124B02264FF40032C4F804630121DE
:10406C00C3F8802111202A46FEF7D2FE1120FEF75C
:10407C00B3FE01230A4AA3600021236009481360A0
:10408C00FFF728FF3046FFF755FB284670BD00BFF1
:10409C000010014003000F005805002000E100E073
:1040AC0088070020FFFF7F00431C10B50F4C05D084
:1040BC008442A8BF0446012CB8BF0124FFF77EFE42
:1040CC000B4AD2E90031C01AB0F5000F074A0AD2E8
:1040DC002044904228BF1046C018BDE8104041F162
:1040EC000001FFF7F7BE1046F6E700BFFFFF7F00A9
:1040FC006805002008B5FFF761FE024B1B68C01A6B
:10410C0008BD00BF6805002008B5FDF7FBFD04489D
:10411C00044A012104F0B4FA0020FEF797FD00BF19
:10412C009C8E000047A300004FF0704393F8E02FE3
:10413C00062A09D1D3F8E83FC3F30313033B042B3E
:10414C0002D8024AD05C70470020704773A300006D
:10415C00024AD2F80034002BFBD0704700E001403B
:10416C0010B504F0F6FB40B14FF080538E4AD3F8F3
:10417C002433C3F30423C2F84035FFF7D5FF10B145
:10418C008A4B8B4A5A6704F0E4FB48B14FF08053DA
:10419C004FF08042D3F84432C3F34233C2F83C357B
:1041AC00FFF7C2FF30B1834AD2F8FC3023F08073A2
:1041BC00C2F8FC3004F0CDFB40B14FF0804300223C
:1041CC00C3F80C21C3F81021C3F83825FFF7ACFF56
:1041DC0020B14FF080430322C3F8A025FFF7A4FFC2
:1041EC0060B1754B0522C3F810260122C3F888264E
:1041FC000022C3F818263F22C3F814264FF0805330
:10420C00D3F83021511C09BF4FF07043D3F834312F
:10421C0093F8E02FD3F8E83F08BFC3F30313062A43
:10422C004DD1033B042B03D8644AD35C002B46D0FE
:10423C004FF08052624BD2F80414C3F82015D2F818
:10424C000814C3F82415D2F80C14C3F82815D2F8A6
:10425C001014C3F82C15D2F81414C3F83015D2F876
:10426C001814C3F83415D2F81C14C3F84015D2F83E
:10427C002014C3F84415D2F82414C3F84815D2F806
:10428C002814C3F84C15D2F82C14C3F85015D2F8D6
:10429C003014C3F85415D2F83414C3F86015D2F89E
:1042AC003814C3F86415D2F83C14C3F86815D2F866
:1042BC004014C3F86C15D2F84424C3F8702504F0EC
:1042CC0048FB48B14FF080534FF08042D3F858323E
:1042DC0003F04F03C2F8E43E04F03BFB48B14FF04F
:1042EC008043D3F80024D20744BF6FF00102C3F817
:1042FC0000244FF08053D3F83021062A26D1D3F86E
:10430C003431033B042B02D82E4AD35C63B12E4AC2
:10431C00D2F83C3743F48063C2F83C374FF08053FB
:10432C00D3F83031062B11D14FF08053D3F8343100
:10433C00033B042B02D8254AD35C3BB14FF010232E
:10434C00D3F808224FF08043C3F858254FF01023C0
:10435C00D3F80022002A03DBD3F80432002B22DA34
:10436C001B4901234FF01020C1F804351524FFF729
:10437C00EFFEC0F80042FFF7EBFEC0F80442FFF777
:10438C00E7FE0023C1F80435FFF7E2FEBFF34F8FC1
:10439C000849104BCA6802F4E0621343CB60BFF3C8
:1043AC004F8F00BFFDE710BD0030014000C007403B
:1043BC000DF0ADBA00ED00E0005000406EA300001F
:1043CC0000C0004069A300000010004064A300007E
:1043DC0000E001400400FA0530B50468CCB1BFF32D
:1043EC005B8FB4FA84F3C3F11F03DBB201229A4052
:1043FC0024EA020250E8005FA54204D140E8002CF8
:10440C00BCF1000FF6D1BFF35B8FE6D102480B7005
:10441C0030BD0248FCE700BF0000AD0B0200AD0B45
:10442C00014BC3F80405704700F00140F7B54FF09D
:10443C008043044658B1012828D034493448354AC1
:10444C00DC2303F063FF3348DC2103F058FF022226
:10445C00C3F808230122DA60C3F80401D3F804314D
:10446C00064601238DF8073042F210754FF0804755
:10447C00ECB1012C2FD025492548274A4FF47473F1
:10448C0003F044FF24484FF47471DEE70022C3F8B4
:10449C0008035860C3F80021D3F800310DF107066A
:1044AC00DFE783B1012004F063FA013D0BD0D7F8AC
:1044BC00183403F48033002EF3D0D7F8182402F00C
:1044CC0003023260BBB903B0F0BD83B1012004F02C
:1044DC004FFA013D0BD0D7F80C3403F48033002E87
:1044EC00F3D0D7F80C2402F0010232701BB90B4B3D
:1044FC0000225A71E7E79DF80700012803D104F068
:10450C0037FA013DB4D1012CDDD1F0E70C97000056
:10451C00D690000078A30000B5A3000090070020FF
:10452C00044B1A7922B9012218609A80024870470C
:10453C0002487047900700200000AD0B0C00AD0B3B
:10454C0008B50E4B1A795AB90D490E480E4A4FF45C
:10455C00987303F0DBFE0C484FF4987103F0CFFE18
:10456C001B682BB10020FEF745FC08B9FEF734FCA4
:10457C004FF080430022C3F8182508BD9007002097
:10458C00E9A30000D690000078A3000070B5404C61
:10459C0023795BB93F49404A40484FF4BD7303F05F
:1045AC00B5FE4FF4BD713C4803F0A9FE4FF08043BB
:1045BC0058B1012852D03A49374A38484FF4DF7382
:1045CC0003F0A4FE4FF4DF71EDE7D3F81814D3F821
:1045DC001824C8032AD502F00303012B04D013B10D
:1045EC000020FFF723FF00234FF08042C2F818355C
:1045FC000023C2F80431D2F804312A4AD2F8FC0064
:10460C0040F08073C2F8FC30274B1D6845F0010167
:10461C0019605E685968891BB1F50A5FFAD31D6091
:10462C002249C2F8FC00082302201EE0D3F814240F
:10463C00D107D8D5D3F81C249207D1D422681AB14B
:10464C000222C3F8042370BDD3F80421002AFBD046
:10465C000022C3F80421D3F80431F4E70022C3F894
:10466C0000211349D3F80031134603F18043012292
:10467C001A60236823B14FF08043C3F80403E2E7C8
:10468C000B68002BFCD000230B600B68DBE700BF32
:10469C0090070020E9A3000078A30000D69000004A
:1046AC000C97000000ED00E0001000E00401004059
:1046BC000001004008B5094B1B795BB90849094852
:1046CC00094A4FF4EC7303F021FE07484FF4EC71E8
:1046DC0003F015FEBDE80840FFF7A8BE90070020C8
:1046EC00E9A30000D690000078A3000010B54FF0AD
:1046FC008043D3F800216AB10022C3F80021D3F81B
:10470C0000210122C3F80823114B587910B95A71B2
:10471C001B6898474FF08043D3F8042172B10022F4
:10472C00C3F80421D3F80421D3F81824D3F818249F
:10473C00920704D10122C3F818259A6010BD0222F9
:10474C00C3F80823024BBDE810401B680120184732
:10475C009007002008B502680146104604F016F9CF
:10476C0058B90F490F4A104840F2453303F0CEFDBB
:10477C0040F245310B4803F0C2FD02F01F03520911
:10478C000B6009D00949074A074840F24E3303F041
:10479C00BDFD40F24E31EDE74FF0A04008BD00BF2B
:1047AC00DFA20000ACA20000D69000000C97000025
:1047BC00072808B50BD908490848094A4FF43D7336
:1047CC0003F0A4FD06484FF43D7103F098FD800002
:1047DC0000F5807008BD00BF3CA40000D69000001E
:1047EC0007A4000070B500F108030C4C34F813302A
:1047FC00DA0505460E4607D5C3F3432304EBC30283
:10480C0054F8333052689847A3682BB1E2683146AC
:10481C002846BDE87040184770BD00BF3C00002022
:10482C00C0B2034B083033F81000C0F3400070479F
:10483C003C000020C0B2034B083033F81000C0F32A
:10484C00401070473C00002008B5014604F09EF86B
:10485C0058B91149114A124840F2A33303F056FDDE
:10486C0040F2A3310D4803F04AFD084604F002F96A
:10487C0048B90C49094A0A484FF4697303F046FDDC
:10488C004FF46971EEE7C9B2074B083133F81100E8
:10489C00400B800008BD00BF98A4000046A4000097
:1048AC00D6900000B9A400003C0000202DE9F8438C
:1048BC00002407460E4625464FF00108A146B54296
:1048CC000DD1124BD3F87C2132B10022C3F87C21DC
:1048DC00D3F87C3144F000442046BDE8F883E8B2BC
:1048EC00FFF766FFA0F58072920808FA02F21742F1
:1048FC0009D000F1804303F5C043196819B1C3F81E
:10490C0000901B6814430135D9E700BF00600040DC
:10491C002DE9FF4107460C461E4632B30846FFF709
:10492C007FFF18B90846FFF785FF20BBE5B2DFF81B
:10493C00CC80083538F8153013F01C0F02D05378A2
:10494C00012B18D001238DF80F300023CDE9002363
:10495C000DF10F01931C2046013204F021F838F8B8
:10496C00153043F0030328F81530002E43D02046B1
:10497C00FFF756FF18B9224804B0BDE8F08196F84D
:10498C0000E03B681D4D0EF5A272002143F8221089
:10499C00E1B2083135F8112022F02002D204D20CF9
:1049AC0025F8112096F801C0BCF1000F23D038680F
:1049BC00B67800EB8E004FEA0C4CD0F8103523F48F
:1049CC00981323F4F853C0F81035230203F4F8536A
:1049DC000CF4403C3605D0F8107543EA0C0306F491
:1049EC00801642EA4E32334342F020023B4325F814
:1049FC001120C0F810350348BEE700BF3C00002072
:104A0C000400AD0B0000AD0B2DE9F0411A4E96F8E9
:104A1C00604005466CBB4022214606F1100004F0B4
:104A2C0040F92D68376DA046A74213D10023C5F875
:104A3C007C3145F30730D5F87C31FEF7CDF94FF0DA
:104A4C000043C5F804330D48012386F86030B36584
:104A5C00BDE8F081E0B2FFF7ABFEA0F580739B08D8
:104A6C001F2B08BF45F8008004F1010408BF2B5828
:104A7C00DAE70348ECE700BF3C0000200000AD0B78
:104A8C000C00AD0B034B93F86000003818BF0120ED
:104A9C00704700BF3C0000200148FFF79DBC00BFE1
:104AAC009000002010B50446084603F06FFF58B97B
:104ABC001449154A154840F2933303F027FC40F291
:104ACC009331114803F01BFC084603F0D3FF48B99F
:104ADC000F490D4A0D484FF4657303F017FC4FF462
:104AEC006571EEE7C9B20B4B083133F8112023681E
:104AFC00520B03EB8203D3F8102542F00302C3F8E8
:104B0C00102510BD98A4000046A40000D69000000B
:104B1C00B9A400003C0000202DE9F74F554B564F2F
:104B2C00D3F80403396DC0B240F00040FFF7BEFE6D
:104B3C00051E18DA0023F96D0093684603F08CFF0C
:104B4C004FF0010897F85C30DB075BD4396D4FF000
:104B5C000040FFF7ABFEF96D684603F07DFF0028BF
:104B6C00F0D125F000450124002D6AD103B0BDE839
:104B7C00F08F94FAA4F4B4FA84F4E10804F1080375
:104B8C0004F0070237F813901DF80130019408FA6D
:104B9C0002F223EA020301A80DF80130FFF7DAFD57
:104BAC00019B03F5E0734FEA990B50F82360C9F3AE
:104BBC00820A1BF0040FD146C6F3014626D051469B
:104BCC002046FFF70FFE01A80194FFF7C3FD019BE0
:104BDC0003F5E073F6B250F82330C3F301439E4261
:104BEC0007D10021204603F028FF3146204603F070
:104BFC0024FF01A80194FFF7ADFD019B08FA03F314
:104C0C00C0F82035009C002CB3D19FE7022E0CD1AC
:104C1C000321204603F011FF0AF00503012BE8D114
:104C2C0049462046FFF7DEFDE3E70221204603F06C
:104C3C0004FFBAF1030FF3D0032EDAD1BAF1020F4D
:104C4C00EDE795FAA5F3B3FA83F304FA03F29B00AC
:104C5C0003F1804303F5C04325EA0205D3F81005A0
:104C6C00D3F81015C0F30420C1F30141FFF7BAFDCE
:104C7C007AE700BF006000403C000020014601487C
:104C8C00FFF7AABBA0000020054B93F82E00431E93
:104C9C00012B03D9043818BF01207047002070473E
:104CAC009807002010B5144A14490020C2F80005DA
:104CBC0091F82F40D2F8043381F82E400C6823F081
:104CCC0033030CB143F02303C2F81C01D2F81C418E
:104CDC00C2F81801D2F8182191F83320D00791F8B6
:104CEC00342048BF43F08003D207034A48BF43F047
:104CFC004003C2F8003310BD00700040980700203C
:104D0C0070B50D4A002392F8301001251E4618B9D3
:104D1C000BB182F8301070BD90FAA0F3B3FA83F3A4
:104D2C0005FA03F40C3302EB430320EA0400DE80A3
:104D3C0021EA04010123EAE79807002038B548B9B5
:104D4C001449154A15487D2303F0E0FA7D211248D9
:104D5C0003F0D5FAFF2807D911490F4A0F487E23D3
:104D6C0003F0D4FA7E21F2E70E4B082493F830506E
:104D7C0001220023104203D0154208D00133DBB2CC
:104D8C00013C4FEA4202F5D107480B7038BD074889
:104D9C00FCE700BF1AA50000DDA40000D6900000BF
:104DAC002EA50000980700200000AD0B0400AD0BF1
:104DBC0073B50023044601AA0E464FF4807101938B
:104DCC0003F06BFE4FF48A71204603F066FE4FF43D
:104DDC0082710546204603F060FE20B11EB115B16C
:104DEC00144BD3F8343601AA4FF48471204603F0E7
:104DFC0054FE4FF48671204603F04FFE4FF4887139
:104E0C00204603F04AFE14F47F5F10D04FF48E75E9
:104E1C00294601AA204603F040FE291F083589B215
:104E2C002046ADB203F039FEB5F5AE7FF0D1019856
:104E3C0002B070BD007000402DE9F04F93B09A465F
:104E4C000DF1080C0AAF1C9D3D4B3E46E04600247C
:104E5C0003EB041E0134DEF8189548F8049B082C6B
:104E6C00DEF81CE546F804EBF2D1D3F8F065D3F884
:104E7C00404601944FF0010E0024D3F84496D3F829
:104E8C004886C3F8FC4FC3F8FCEF2D4B5CF804BB11
:104E9C0003EB041E0134CEF818B557F804BBCEF85A
:104EAC001CB5082CF2D1019CC3F84046F6B2254C37
:104EBC00C3F84496C3F84886C3F8F065002684F816
:104ECC00336084F83460A6602661256084F8310074
:104EDC00A683C3F8F015C3F8F4256DB32322C3F8E9
:104EEC000023184D164E0024012706EB041E07FA6A
:104EFC0004F3DEF818152201034002F1804214BFBE
:104F0C00D046984602F5E04221F0807104F101048C
:104F1C001ABF95F81EC0EB7F9C4641EA0861082C2D
:104F2C00CEF8181505F10205C2F81435C2F810C5F3
:104F3C00DBD113B0BDE8F08FC3F80053D1E700BF4D
:104F4C00007000409807002010B5C3794BB9224976
:104F5C002248234A942303F0D9F92148942103F0E1
:104F6C00CEF98378C278417A1B02120302F4805284
:104F7C0003F4E0631343027802F003021343027953
:104F8C00120402F4E02213434278120102F03002C0
:104F9C0013434279120502F48012134382791206EC
:104FAC0002F0807213430A0102F1804202F5E042E2
:104FBC00C2F818350B4AC47901F10C0302EB430318
:104FCC009C71007AD871012303FA01F192F8303008
:104FDC000B4382F8303010BD4DA50000D690000078
:104FEC00DDA400009807002070B51F4D95F82E40E9
:104FFC00002C37D10126FF2085F82E60FFF780FEAC
:10500C001A4B1B49C3F80041D3F80021C3F80441E3
:10501C00D3F80421C3F81041D3F81021C3F814417C
:10502C00D3F814311C239A0806FA02F212F0330F4B
:10503C001FBF03F1804202F5E242146012681A1F8E
:10504C00920806FA02F212F0330F1CBF5C505A5849
:10505C0008335C2BE7D10720FDF7BEFE0023054883
:10506C002B6070BD0448FCE79807002000700040DE
:10507C00FC7000400000AD0B0C00AD0B08B5134BE1
:10508C0093F82E3002465BB91149124A12484FF47C
:10509C00A37303F03BF94FF4A3710E4803F02FF9FF
:1050AC0048B90E490B4A0C4840F2471303F02EF94D
:1050BC0040F24711F1E7FFF7E7FD20B91046FFF783
:1050CC0043FF074808BD0748FCE700BF98070020CE
:1050DC007AA50000DDA40000D6900000CAA500004F
:1050EC000000AD0B0B00AD0B08B5094B93F82E204F
:1050FC005AB908490848094A40F2551303F006F911
:10510C00064840F2551103F0FAF893F8300008BD48
:10511C00980700207AA50000D6900000DDA40000BE
:10512C002DE9FF47374E994696F82E3080468A4631
:10513C0015465BB93449354A354840F2971303F0AC
:10514C00E5F840F29711314803F0D9F84AB93149E2
:10515C002E4A2F484FF4CC7303F0D8F84FF4CC718F
:10516C00F1E7FFF791FD0746002847D10DF10F013C
:10517C004046FFF7E3FD284B984204463AD16B8832
:10518C0033B19DF80F30012B3AD8B9F1000F37D05D
:10519C002A786B782AB123B99DF80F1001292FD8E2
:1051AC000127CDF8009051464046FFF745FE6B882D
:1051BC001A4A8BB1A3F15001B1F5F66F0AD3184915
:1051CC001348184A40F2334303F0A0F8154840F254
:1051DC003341B9E743F48053C2F8F8359DF80F30EA
:1051EC0086F832302B7986F83530042386F8367001
:1051FC0086F82E30204604B0BDE8F0870A4CF9E75B
:10520C000A4CF7E7980700207AA50000DDA40000FF
:10521C00D6900000D4A500000000AD0B007000403B
:10522C0011A60000DDA500000B00AD0B0300AD0BBB
:10523C0038B5224B93F82E205AB921492148224ADD
:10524C004FF4EA7303F062F81F484FF4EA7103F06D
:10525C0056F81C695CBB00F06044B4F1005F28D1C7
:10526C0093F83240B1FBF4F504FB15151DBB0DB2E0
:10527C00002D20DD052A05D8032A0AD8022A0DD0D4
:10528C00124838BD062AFBD1114AC2F82C06C2F8C6
:10529C0030169A6842B1C3E9040103E08C420AD18A
:1052AC00C3E902040B48ECE7C3E90201FAE70A4838
:1052BC00E7E70A48E5E70A48E3E700BF980700205C
:1052CC007AA50000D6900000DDA400000500AD0B0F
:1052DC00007000400000AD0B0C00AD0B0A00AD0BD4
:1052EC000600AD0B2DE9F3415C4C94F82E205AB915
:1052FC005B495C4A5C4840F20D2303F007F840F22E
:10530C000D21584802F0FBFF012A09D15749554A93
:10531C00554840F20E2302F0F9FF40F20E21F0E75F
:10532C00A368002B00F09780022A05D0042A30D005
:10533C004F4802B0BDE8F0814E4D0126C5F800651E
:10534C002168E26849B1032184F82E10C5F82C3687
:10535C00C5F830262E604848EBE7C5F82C36C5F862
:10536C0030262E6003F0B0FB08346E60214602201C
:10537C00FFF71EFD0028F9D03E4B0022C3F8082190
:10538C00D3F80811C3F80C21D3F80C11C3F800257D
:10539C00E1E7384D4FF00108C5F80085276857B193
:1053AC00052284F82E20E268C5F82C36C5F8302684
:1053BC00C5F80080CFE7A18B94F83220019203EB63
:1053CC0041030093C5F82C36C5F83026C5F800808B
:1053DC0003F07AFB94F836305BBB264D01236B60EF
:1053EC0069460220FFF7E4FC0028F9D00022C5F83A
:1053FC000821D5F80831C5F80C21D5F80C31A18B52
:10540C0094F832300B44E1689BB28B42A38321BFEA
:10541C001A4BA283D3E90201C3E90001154B28BF43
:10542C0022614FF000022CBF13481548C3F8002529
:10543C007FE7D5F8F465F6B208FA06F6013EBE42EF
:10544C00CBD9C5F8048000210420FFF7B1FC00285B
:10545C00F9D00137F3E70B486BE700BF9807002042
:10546C007AA50000DDA40000D69000002CA6000058
:10547C000500AD0B007000400000AD0BA007002034
:10548C000B00AD0B0200AD0BF8B5314E96F82E109B
:10549C00024659B92F493048304A40F2BA2302F03B
:1054AC0035FF2E4840F2BA2102F029FFFFF7ECFB42
:1054BC0000284AD12A4C86F82F10072386F82E3064
:1054CC0001237260C4F80035D4F80453C4F8000307
:1054DC00E3603AB125F0C00545F03305C4F800533C
:1054EC002048F8BD00211020FFF762FC0028F9D0FD
:1054FC000023C4F80431D4F804311B4BC4F82C3607
:10550C0001270223C4F83036276003F0DDFAA760C8
:10551C0000212020FFF74CFC0028F9D0104B002272
:10552C00C3F80421D3F80411C3F8002596F82F1002
:10553C0086F82E10C3F81C21D3F81C11C3F81821BF
:10554C00D3F81821C3F80053CAE70848C9E700BFCD
:10555C00980700207AA50000D6900000DDA400007A
:10556C00007000400000AD0BB00700200B00AD0B2D
:10557C007FB56249614E3320FFF71AFC10F0100F13
:10558C0005460BD05E4B1022C3F80823B218C3F8A3
:10559C002C260222C3F8302601221A60594CAA0686
:1055AC0094F82E300ED5072B554A05D0D2F8343648
:1055BC009BB2E36000232361D2F80433DB0601D5F0
:1055CC00FFF770FBA80718D594F82E30A16802914C
:1055DC000022E1688DF80420062BADF80C1018D0D1
:1055EC00072B35D0032B08D1454BC3F800250223DC
:1055FC0084F82E30236801A89847E9074FD594F812
:10560C002E30033B042B4AD8DFE803F05A492941DA
:10561C005E0094F8353023B1236913B1384B012265
:10562C001A60236801A89847374B93E8030086E873
:10563C00030000232361A368002BDED1304AC2F89B
:10564C000035042384F82E3005238DF80430D1E77F
:10565C00FFF728FB02238DF804306368CBE70423A3
:10566C008DF8043001A823689847254BD3F8F8250A
:10567C00D20444BF01225A602269062384F82E30DA
:10568C002AB11F4B6169C3F82C26C3F83016236965
:10569C002BB903238DF8043001A82368984794F89C
:1056AC002E30072B0AD0164BD3F80403002100F43C
:1056BC007F50FFF77DFB012685094DB904B070BD05
:1056CC000F4B01225A60EAE70D4B01229A60E6E784
:1056DC0095FAA5F3B3FA83F306FA03F225EA020569
:1056EC005A08DB4303F001038DF809308DF8046090
:1056FC0023688DF8082001A89847DEE7A007002052
:10570C000070004098070020A807002008B5124B35
:10571C00A8220021184603F0C4FA032202610F49A3
:10572C0042610F4A8161C2614FF4806202620022C1
:10573C0082624262C26201660A4941661021816638
:10574C00094902670346C266426711F8010D985475
:10575C000132102AF9D108BDD007002055A600004F
:10576C00F7080020E70800206EA600002DE9F84F8E
:10577C00DFF87C80182606FB008E00FB066646448C
:10578C00DEF82440DEF828C07368A4450746894635
:10579C00154603EB040022D8DEF820B0ABEB040A6C
:1057AC000AF1FF339A4203D803F06DFA2C440FE050
:1057BC0063449A4219D852462C4403F064FAB4EB71
:1057CC000B0405D07068224609EB0A0103F05BFA62
:1057DC00182303FB078301205C62BDE8F88F0CF1F2
:1057EC00FF3CACEB040C9445DED20020F5E700BF87
:1057FC00D0070020034B182202FB00339A6A586A28
:10580C00801A7047D007002003484FF0FF324FF04A
:10581C00FF3300F06BBB00BFF4000020014800F028
:10582C00D5BA00BFF400002008B50A4A0A4B9342CF
:10583C000ED90A490A4A0B48172302F067FD0A4899
:10584C0002F064FD0648172102F059FD1433EEE70F
:10585C00FCD308BD4C8D0000248D000092A60000E6
:10586C006FA60000D6900000809700002DE9F84349
:10587C00044600AF0D464FF02003EFF3118883F37D
:10588C001288BFF36F8F0428304A98BF304B96684C
:10589C00117C94BF53F820302E4BE9468AB06A46EF
:1058AC002D48C2E9073140F2013393842B4BC2E9F6
:1058BC00050442F8103F2A4800234FF43151FCF7FD
:1058CC008FFACD4645B1EB69C3F3080323B1254AE2
:1058DC002348012102F0D4FE2EB1304603F01CF90E
:1058EC0008B1037803B92048E9468AB06A461F4BD1
:1058FC00D061C2E9053640F2013313841C4B42F8E7
:10590C00103F174800234FF41151FCF769FA294650
:10591C00CD462046FEF7F8FB042C0CD11549164A4F
:10592C0016488A2302F0F2FC154802F0EFFC1248EC
:10593C008A2102F0E4FC88F31188BFF36F8F3046A4
:10594C00FDF7DAF9BD46BDE8F88300BF7C080020FE
:10595C0060900000AAA60000C0A60000050000018F
:10596C00C48E0000E8A60000B8A6000009A700003D
:10597C000400000143A7000021A70000D6900000FE
:10598C0060A70000104B70B553F82040013053F85D
:10599C002060A64200D870BDD4E9003595B153B152
:1059AC002846984738B10028B8BF4042EB68FF281A
:1059BC00A8BFFF201870EA68537843F001035370B6
:1059CC000834E6E79847FBE77490000008B50A4BEB
:1059DC00012203201A70FFF7D5FF03F0F0F8042022
:1059EC00FFF7D0FF00F036F9FAF716FC034A137BE9
:1059FC0023F00103137308BDF70C0020F8050020F9
:105A0C0008B50348034A0021121A03F07BF808BDBD
:105A1C0018010020FC0C002070B5002386B0012278
:105A2C00CDE90423194E1A4D01930F22CDE9023210
:105A3C001849142303FB005506EBC01604464FF41B
:105A4C00C070154B00954FF4A07200FB041130464A
:105A5C0000F098F8737B114AEE6023F00403737323
:105A6C004FF4046304FB033313446B600C4B2C7432
:105A7C00BFF35B8F53E8001F013143E80012002A8B
:105A8C00F8D1BFF35B8F06B070BD00BF7805002066
:105A9C007C08002040150020915D0000000D0020C6
:105AAC007808002080B50020A6B0FFF76BFF2E4BC6
:105ABC0083F308882D4D2E4E6B692E4F43F40073E3
:105ACC006B610024E02385F82230EC772C766C7621
